{
  "_format": "hh-sol-artifact-1",
  "contractName": "DProduct",
  "sourceName": "contracts/DProduct.sol",
  "abi": [
    {
      "inputs": [],
      "name": "DProduct__ProductDoesNotExist",
      "type": "error"
    },
    {
      "inputs": [],
      "name": "DProduct__UserIsNotDesigner",
      "type": "error"
    },
    {
      "inputs": [],
      "name": "DProduct__UserNotOwner",
      "type": "error"
    },
    {
      "anonymous": false,
      "inputs": [
        {
          "indexed": true,
          "internalType": "address",
          "name": "c_address",
          "type": "address"
        },
        {
          "indexed": true,
          "internalType": "uint256",
          "name": "id",
          "type": "uint256"
        },
        {
          "indexed": false,
          "internalType": "string",
          "name": "name",
          "type": "string"
        },
        {
          "indexed": false,
          "internalType": "string",
          "name": "surname",
          "type": "string"
        }
      ],
      "name": "CustomerCreated",
      "type": "event"
    },
    {
      "anonymous": false,
      "inputs": [
        {
          "indexed": true,
          "internalType": "address",
          "name": "d_address",
          "type": "address"
        },
        {
          "indexed": true,
          "internalType": "uint256",
          "name": "id",
          "type": "uint256"
        },
        {
          "indexed": false,
          "internalType": "string",
          "name": "name",
          "type": "string"
        },
        {
          "indexed": false,
          "internalType": "string",
          "name": "surname",
          "type": "string"
        },
        {
          "indexed": true,
          "internalType": "string",
          "name": "email",
          "type": "string"
        },
        {
          "indexed": false,
          "internalType": "uint256",
          "name": "ssn",
          "type": "uint256"
        }
      ],
      "name": "DesignerCreated",
      "type": "event"
    },
    {
      "anonymous": false,
      "inputs": [
        {
          "indexed": true,
          "internalType": "address",
          "name": "m_address",
          "type": "address"
        },
        {
          "indexed": true,
          "internalType": "uint256",
          "name": "id",
          "type": "uint256"
        },
        {
          "indexed": false,
          "internalType": "string",
          "name": "name",
          "type": "string"
        },
        {
          "indexed": false,
          "internalType": "string",
          "name": "email",
          "type": "string"
        },
        {
          "indexed": true,
          "internalType": "uint256",
          "name": "ssn",
          "type": "uint256"
        }
      ],
      "name": "ManufacturerCreated",
      "type": "event"
    },
    {
      "anonymous": false,
      "inputs": [
        {
          "indexed": true,
          "internalType": "bytes32",
          "name": "role",
          "type": "bytes32"
        },
        {
          "indexed": true,
          "internalType": "bytes32",
          "name": "previousAdminRole",
          "type": "bytes32"
        },
        {
          "indexed": true,
          "internalType": "bytes32",
          "name": "newAdminRole",
          "type": "bytes32"
        }
      ],
      "name": "RoleAdminChanged",
      "type": "event"
    },
    {
      "anonymous": false,
      "inputs": [
        {
          "indexed": true,
          "internalType": "bytes32",
          "name": "role",
          "type": "bytes32"
        },
        {
          "indexed": true,
          "internalType": "address",
          "name": "account",
          "type": "address"
        },
        {
          "indexed": true,
          "internalType": "address",
          "name": "sender",
          "type": "address"
        }
      ],
      "name": "RoleGranted",
      "type": "event"
    },
    {
      "anonymous": false,
      "inputs": [
        {
          "indexed": true,
          "internalType": "bytes32",
          "name": "role",
          "type": "bytes32"
        },
        {
          "indexed": true,
          "internalType": "address",
          "name": "account",
          "type": "address"
        },
        {
          "indexed": true,
          "internalType": "address",
          "name": "sender",
          "type": "address"
        }
      ],
      "name": "RoleRevoked",
      "type": "event"
    },
    {
      "inputs": [],
      "name": "CUSTOMER_ROLE",
      "outputs": [
        {
          "internalType": "bytes32",
          "name": "",
          "type": "bytes32"
        }
      ],
      "stateMutability": "view",
      "type": "function"
    },
    {
      "inputs": [],
      "name": "DEFAULT_ADMIN_ROLE",
      "outputs": [
        {
          "internalType": "bytes32",
          "name": "",
          "type": "bytes32"
        }
      ],
      "stateMutability": "view",
      "type": "function"
    },
    {
      "inputs": [],
      "name": "DESIGNER_ROLE",
      "outputs": [
        {
          "internalType": "bytes32",
          "name": "",
          "type": "bytes32"
        }
      ],
      "stateMutability": "view",
      "type": "function"
    },
    {
      "inputs": [],
      "name": "MANUFACTURER_ROLE",
      "outputs": [
        {
          "internalType": "bytes32",
          "name": "",
          "type": "bytes32"
        }
      ],
      "stateMutability": "view",
      "type": "function"
    },
    {
      "inputs": [
        {
          "internalType": "string[]",
          "name": "_images",
          "type": "string[]"
        },
        {
          "internalType": "string",
          "name": "_name",
          "type": "string"
        },
        {
          "internalType": "string",
          "name": "_description",
          "type": "string"
        }
      ],
      "name": "createDProduct",
      "outputs": [],
      "stateMutability": "nonpayable",
      "type": "function"
    },
    {
      "inputs": [
        {
          "internalType": "address",
          "name": "_customer",
          "type": "address"
        }
      ],
      "name": "customerLogin",
      "outputs": [
        {
          "internalType": "bool",
          "name": "",
          "type": "bool"
        }
      ],
      "stateMutability": "view",
      "type": "function"
    },
    {
      "inputs": [
        {
          "internalType": "address",
          "name": "_customer",
          "type": "address"
        }
      ],
      "name": "customerProfile",
      "outputs": [
        {
          "components": [
            {
              "internalType": "address",
              "name": "c_address",
              "type": "address"
            },
            {
              "internalType": "uint256",
              "name": "id",
              "type": "uint256"
            },
            {
              "internalType": "string",
              "name": "name",
              "type": "string"
            },
            {
              "internalType": "string",
              "name": "surname",
              "type": "string"
            },
            {
              "internalType": "uint64",
              "name": "number",
              "type": "uint64"
            }
          ],
          "internalType": "struct Users.Customer",
          "name": "",
          "type": "tuple"
        }
      ],
      "stateMutability": "view",
      "type": "function"
    },
    {
      "inputs": [
        {
          "internalType": "uint256",
          "name": "",
          "type": "uint256"
        }
      ],
      "name": "customers",
      "outputs": [
        {
          "internalType": "address",
          "name": "c_address",
          "type": "address"
        },
        {
          "internalType": "uint256",
          "name": "id",
          "type": "uint256"
        },
        {
          "internalType": "string",
          "name": "name",
          "type": "string"
        },
        {
          "internalType": "string",
          "name": "surname",
          "type": "string"
        },
        {
          "internalType": "uint64",
          "name": "number",
          "type": "uint64"
        }
      ],
      "stateMutability": "view",
      "type": "function"
    },
    {
      "inputs": [
        {
          "internalType": "uint256",
          "name": "",
          "type": "uint256"
        }
      ],
      "name": "d_products",
      "outputs": [
        {
          "internalType": "address",
          "name": "owner",
          "type": "address"
        },
        {
          "internalType": "uint256",
          "name": "p_id",
          "type": "uint256"
        },
        {
          "internalType": "string",
          "name": "name",
          "type": "string"
        },
        {
          "internalType": "string",
          "name": "description",
          "type": "string"
        }
      ],
      "stateMutability": "view",
      "type": "function"
    },
    {
      "inputs": [
        {
          "internalType": "uint256",
          "name": "_productId",
          "type": "uint256"
        }
      ],
      "name": "deleteDProduct",
      "outputs": [],
      "stateMutability": "nonpayable",
      "type": "function"
    },
    {
      "inputs": [
        {
          "internalType": "address",
          "name": "_designer",
          "type": "address"
        }
      ],
      "name": "designerLogIn",
      "outputs": [
        {
          "internalType": "bool",
          "name": "",
          "type": "bool"
        }
      ],
      "stateMutability": "view",
      "type": "function"
    },
    {
      "inputs": [
        {
          "internalType": "address",
          "name": "_designer",
          "type": "address"
        }
      ],
      "name": "designerProfile",
      "outputs": [
        {
          "components": [
            {
              "internalType": "address",
              "name": "d_address",
              "type": "address"
            },
            {
              "internalType": "uint256",
              "name": "id",
              "type": "uint256"
            },
            {
              "internalType": "string",
              "name": "name",
              "type": "string"
            },
            {
              "internalType": "string",
              "name": "surname",
              "type": "string"
            },
            {
              "internalType": "uint64",
              "name": "number",
              "type": "uint64"
            },
            {
              "internalType": "string",
              "name": "email",
              "type": "string"
            },
            {
              "internalType": "uint256",
              "name": "ssn",
              "type": "uint256"
            },
            {
              "internalType": "string",
              "name": "location",
              "type": "string"
            }
          ],
          "internalType": "struct Users.Designer",
          "name": "",
          "type": "tuple"
        }
      ],
      "stateMutability": "view",
      "type": "function"
    },
    {
      "inputs": [
        {
          "internalType": "uint256",
          "name": "",
          "type": "uint256"
        }
      ],
      "name": "designers",
      "outputs": [
        {
          "internalType": "address",
          "name": "d_address",
          "type": "address"
        },
        {
          "internalType": "uint256",
          "name": "id",
          "type": "uint256"
        },
        {
          "internalType": "string",
          "name": "name",
          "type": "string"
        },
        {
          "internalType": "string",
          "name": "surname",
          "type": "string"
        },
        {
          "internalType": "uint64",
          "name": "number",
          "type": "uint64"
        },
        {
          "internalType": "string",
          "name": "email",
          "type": "string"
        },
        {
          "internalType": "uint256",
          "name": "ssn",
          "type": "uint256"
        },
        {
          "internalType": "string",
          "name": "location",
          "type": "string"
        }
      ],
      "stateMutability": "view",
      "type": "function"
    },
    {
      "inputs": [
        {
          "internalType": "bytes32",
          "name": "role",
          "type": "bytes32"
        }
      ],
      "name": "getRoleAdmin",
      "outputs": [
        {
          "internalType": "bytes32",
          "name": "",
          "type": "bytes32"
        }
      ],
      "stateMutability": "view",
      "type": "function"
    },
    {
      "inputs": [
        {
          "internalType": "address",
          "name": "_designer",
          "type": "address"
        }
      ],
      "name": "giveDesignerRole",
      "outputs": [],
      "stateMutability": "nonpayable",
      "type": "function"
    },
    {
      "inputs": [
        {
          "internalType": "address",
          "name": "_manufacturer",
          "type": "address"
        }
      ],
      "name": "giveManufacturerRole",
      "outputs": [],
      "stateMutability": "nonpayable",
      "type": "function"
    },
    {
      "inputs": [
        {
          "internalType": "bytes32",
          "name": "role",
          "type": "bytes32"
        },
        {
          "internalType": "address",
          "name": "account",
          "type": "address"
        }
      ],
      "name": "grantRole",
      "outputs": [],
      "stateMutability": "nonpayable",
      "type": "function"
    },
    {
      "inputs": [
        {
          "internalType": "bytes32",
          "name": "role",
          "type": "bytes32"
        },
        {
          "internalType": "address",
          "name": "account",
          "type": "address"
        }
      ],
      "name": "hasRole",
      "outputs": [
        {
          "internalType": "bool",
          "name": "",
          "type": "bool"
        }
      ],
      "stateMutability": "view",
      "type": "function"
    },
    {
      "inputs": [
        {
          "internalType": "address",
          "name": "_customer",
          "type": "address"
        },
        {
          "internalType": "string",
          "name": "_name",
          "type": "string"
        },
        {
          "internalType": "string",
          "name": "_surname",
          "type": "string"
        },
        {
          "internalType": "uint64",
          "name": "_number",
          "type": "uint64"
        }
      ],
      "name": "makeCustomer",
      "outputs": [],
      "stateMutability": "nonpayable",
      "type": "function"
    },
    {
      "inputs": [
        {
          "internalType": "address",
          "name": "_designer",
          "type": "address"
        },
        {
          "internalType": "string",
          "name": "_name",
          "type": "string"
        },
        {
          "internalType": "string",
          "name": "_surname",
          "type": "string"
        },
        {
          "internalType": "uint64",
          "name": "_number",
          "type": "uint64"
        },
        {
          "internalType": "string",
          "name": "_email",
          "type": "string"
        },
        {
          "internalType": "uint256",
          "name": "_ssn",
          "type": "uint256"
        },
        {
          "internalType": "string",
          "name": "_location",
          "type": "string"
        }
      ],
      "name": "makeDesigner",
      "outputs": [],
      "stateMutability": "nonpayable",
      "type": "function"
    },
    {
      "inputs": [
        {
          "internalType": "address",
          "name": "_manufacturer",
          "type": "address"
        },
        {
          "internalType": "string",
          "name": "_name",
          "type": "string"
        },
        {
          "internalType": "string",
          "name": "_surname",
          "type": "string"
        },
        {
          "internalType": "uint64",
          "name": "_number",
          "type": "uint64"
        },
        {
          "internalType": "string",
          "name": "_email",
          "type": "string"
        },
        {
          "internalType": "uint256",
          "name": "_ssn",
          "type": "uint256"
        },
        {
          "internalType": "string",
          "name": "_location",
          "type": "string"
        }
      ],
      "name": "makeManufacturer",
      "outputs": [],
      "stateMutability": "nonpayable",
      "type": "function"
    },
    {
      "inputs": [
        {
          "internalType": "address",
          "name": "_manufacturer",
          "type": "address"
        }
      ],
      "name": "manufacturerLogIn",
      "outputs": [
        {
          "internalType": "bool",
          "name": "",
          "type": "bool"
        }
      ],
      "stateMutability": "view",
      "type": "function"
    },
    {
      "inputs": [
        {
          "internalType": "address",
          "name": "_manufacturer",
          "type": "address"
        }
      ],
      "name": "manufacturerProfile",
      "outputs": [
        {
          "components": [
            {
              "internalType": "address",
              "name": "m_address",
              "type": "address"
            },
            {
              "internalType": "uint256",
              "name": "id",
              "type": "uint256"
            },
            {
              "internalType": "string",
              "name": "name",
              "type": "string"
            },
            {
              "internalType": "string",
              "name": "surname",
              "type": "string"
            },
            {
              "internalType": "uint64",
              "name": "number",
              "type": "uint64"
            },
            {
              "internalType": "string",
              "name": "email",
              "type": "string"
            },
            {
              "internalType": "uint256",
              "name": "ssn",
              "type": "uint256"
            },
            {
              "internalType": "string",
              "name": "location",
              "type": "string"
            }
          ],
          "internalType": "struct Users.Manufacturer",
          "name": "",
          "type": "tuple"
        }
      ],
      "stateMutability": "view",
      "type": "function"
    },
    {
      "inputs": [
        {
          "internalType": "uint256",
          "name": "",
          "type": "uint256"
        }
      ],
      "name": "manufacturers",
      "outputs": [
        {
          "internalType": "address",
          "name": "m_address",
          "type": "address"
        },
        {
          "internalType": "uint256",
          "name": "id",
          "type": "uint256"
        },
        {
          "internalType": "string",
          "name": "name",
          "type": "string"
        },
        {
          "internalType": "string",
          "name": "surname",
          "type": "string"
        },
        {
          "internalType": "uint64",
          "name": "number",
          "type": "uint64"
        },
        {
          "internalType": "string",
          "name": "email",
          "type": "string"
        },
        {
          "internalType": "uint256",
          "name": "ssn",
          "type": "uint256"
        },
        {
          "internalType": "string",
          "name": "location",
          "type": "string"
        }
      ],
      "stateMutability": "view",
      "type": "function"
    },
    {
      "inputs": [
        {
          "internalType": "address",
          "name": "_designer",
          "type": "address"
        }
      ],
      "name": "oneDesignerProducts",
      "outputs": [
        {
          "components": [
            {
              "internalType": "address",
              "name": "owner",
              "type": "address"
            },
            {
              "internalType": "uint256",
              "name": "p_id",
              "type": "uint256"
            },
            {
              "internalType": "string[]",
              "name": "imagesPaths",
              "type": "string[]"
            },
            {
              "internalType": "string",
              "name": "name",
              "type": "string"
            },
            {
              "internalType": "string",
              "name": "description",
              "type": "string"
            }
          ],
          "internalType": "struct DProduct.D_product[]",
          "name": "",
          "type": "tuple[]"
        }
      ],
      "stateMutability": "view",
      "type": "function"
    },
    {
      "inputs": [
        {
          "internalType": "bytes32",
          "name": "role",
          "type": "bytes32"
        },
        {
          "internalType": "address",
          "name": "account",
          "type": "address"
        }
      ],
      "name": "renounceRole",
      "outputs": [],
      "stateMutability": "nonpayable",
      "type": "function"
    },
    {
      "inputs": [
        {
          "internalType": "bytes32",
          "name": "role",
          "type": "bytes32"
        },
        {
          "internalType": "address",
          "name": "account",
          "type": "address"
        }
      ],
      "name": "revokeRole",
      "outputs": [],
      "stateMutability": "nonpayable",
      "type": "function"
    },
    {
      "inputs": [],
      "name": "s_c_id",
      "outputs": [
        {
          "internalType": "uint256",
          "name": "",
          "type": "uint256"
        }
      ],
      "stateMutability": "view",
      "type": "function"
    },
    {
      "inputs": [],
      "name": "s_d_id",
      "outputs": [
        {
          "internalType": "uint256",
          "name": "",
          "type": "uint256"
        }
      ],
      "stateMutability": "view",
      "type": "function"
    },
    {
      "inputs": [],
      "name": "s_m_id",
      "outputs": [
        {
          "internalType": "uint256",
          "name": "",
          "type": "uint256"
        }
      ],
      "stateMutability": "view",
      "type": "function"
    },
    {
      "inputs": [
        {
          "internalType": "bytes4",
          "name": "interfaceId",
          "type": "bytes4"
        }
      ],
      "name": "supportsInterface",
      "outputs": [
        {
          "internalType": "bool",
          "name": "",
          "type": "bool"
        }
      ],
      "stateMutability": "view",
      "type": "function"
    }
  ],
  "bytecode": "0x60806040526000600155600060025560006003553480156200002057600080fd5b50620000366000801b336200003c60201b60201c565b620001b5565b6200004e82826200005260201b60201c565b5050565b6200006482826200014360201b60201c565b6200013f57600160008084815260200190815260200160002060000160008373ffffffffffffffffffffffffffffffffffffffff1673ffffffffffffffffffffffffffffffffffffffff16815260200190815260200160002060006101000a81548160ff021916908315150217905550620000e4620001ad60201b60201c565b73ffffffffffffffffffffffffffffffffffffffff168173ffffffffffffffffffffffffffffffffffffffff16837f2f8788117e7eff1d82e926ec794901d17c78024a50270940304540a733656f0d60405160405180910390a45b5050565b600080600084815260200190815260200160002060000160008373ffffffffffffffffffffffffffffffffffffffff1673ffffffffffffffffffffffffffffffffffffffff16815260200190815260200160002060009054906101000a900460ff16905092915050565b600033905090565b61472b80620001c56000396000f3fe608060405234801561001057600080fd5b50600436106101e55760003560e01c806391d148541161010f578063d68c5e11116100a2578063e6f5643d11610071578063e6f5643d14610603578063e6fd987414610633578063eac82f471461064f578063fc2e30901461066b576101e5565b8063d68c5e1114610567578063d940353014610585578063dbc37996146105b5578063df064ad8146105e5576101e5565b8063bc319e39116100de578063bc319e39146104c8578063beade623146104fb578063c0abda2a14610517578063d547741f1461054b576101e5565b806391d148541461042c578063965288b01461045c5780639d9c402c1461047a578063a217fddf146104aa576101e5565b8063429211d41161018757806377a17bc01161015657806377a17bc01461038b5780637b27c22e146103bb57806385f0f3c9146103d957806390175af1146103f5576101e5565b8063429211d4146102ec578063489c810c1461032357806360c2e2d7146103535780636f0a4bf21461036f576101e5565b8063248a9ca3116101c3578063248a9ca3146102685780632f2ff15d1461029857806336568abe146102b457806337d31178146102d0576101e5565b806301ffc9a7146101ea57806319f1638a1461021a578063204d79231461024a575b600080fd5b61020460048036038101906101ff919061320c565b610689565b6040516102119190613254565b60405180910390f35b610234600480360381019061022f91906132cd565b610703565b6040516102419190613254565b60405180910390f35b6102526107a5565b60405161025f9190613313565b60405180910390f35b610282600480360381019061027d919061335a565b6107c9565b60405161028f9190613313565b60405180910390f35b6102b260048036038101906102ad9190613387565b6107e8565b005b6102ce60048036038101906102c99190613387565b610809565b005b6102ea60048036038101906102e591906133fd565b61088c565b005b610306600480360381019061030191906133fd565b610a9d565b60405161031a9897969594939291906134fb565b60405180910390f35b61033d600480360381019061033891906132cd565b610d39565b60405161034a9190613805565b60405180910390f35b61036d600480360381019061036891906132cd565b6111e0565b005b61038960048036038101906103849190613988565b611237565b005b6103a560048036038101906103a091906132cd565b6113d9565b6040516103b29190613254565b60405180910390f35b6103c361141d565b6040516103d09190613a27565b60405180910390f35b6103f360048036038101906103ee9190613a42565b611423565b005b61040f600480360381019061040a91906133fd565b6115ff565b6040516104239897969594939291906134fb565b60405180910390f35b61044660048036038101906104419190613387565b61189b565b6040516104539190613254565b60405180910390f35b610464611905565b6040516104719190613313565b60405180910390f35b610494600480360381019061048f91906132cd565b611929565b6040516104a19190613be0565b60405180910390f35b6104b2611ba6565b6040516104bf9190613313565b60405180910390f35b6104e260048036038101906104dd91906133fd565b611bad565b6040516104f29493929190613c02565b60405180910390f35b61051560048036038101906105109190613d3b565b611d0d565b005b610531600480360381019061052c91906133fd565b611e81565b604051610542959493929190613de2565b60405180910390f35b61056560048036038101906105609190613387565b611ffb565b005b61056f61201c565b60405161057c9190613a27565b60405180910390f35b61059f600480360381019061059a91906132cd565b612022565b6040516105ac9190613f08565b60405180910390f35b6105cf60048036038101906105ca91906132cd565b6123ce565b6040516105dc9190613fef565b60405180910390f35b6105ed61277a565b6040516105fa9190613313565b60405180910390f35b61061d600480360381019061061891906132cd565b61279e565b60405161062a9190613254565b60405180910390f35b61064d600480360381019061064891906132cd565b6127e2565b005b61066960048036038101906106649190613a42565b612839565b005b6106736129fe565b6040516106809190613a27565b60405180910390f35b60007f7965db0b000000000000000000000000000000000000000000000000000000007bffffffffffffffffffffffffffffffffffffffffffffffffffffffff1916827bffffffffffffffffffffffffffffffffffffffffffffffffffffffff191614806106fc57506106fb82612a04565b5b9050919050565b600080600190505b600254811161079a578273ffffffffffffffffffffffffffffffffffffffff166004600083815260200190815260200160002060000160009054906101000a900473ffffffffffffffffffffffffffffffffffffffff1673ffffffffffffffffffffffffffffffffffffffff16036107875760019150506107a0565b808061079290614040565b91505061070b565b50600090505b919050565b7f288a15c4a15d470e4cd9cad2f113b91206b520c26dbd3dd74627f0c057baa19c81565b6000806000838152602001908152602001600020600101549050919050565b6107f1826107c9565b6107fa81612a6e565b6108048383612a82565b505050565b610811612b62565b73ffffffffffffffffffffffffffffffffffffffff168173ffffffffffffffffffffffffffffffffffffffff161461087e576040517f08c379a0000000000000000000000000000000000000000000000000000000008152600401610875906140fa565b60405180910390fd5b6108888282612b6a565b5050565b60008073ffffffffffffffffffffffffffffffffffffffff166008600084815260200190815260200160002060000160009054906101000a900473ffffffffffffffffffffffffffffffffffffffff1673ffffffffffffffffffffffffffffffffffffffff1603610929576040517f4736e14000000000000000000000000000000000000000000000000000000000815260040160405180910390fd5b6109537f22c69ab406805e70d07fb1a6502af760601d3b977beadb295a9d76d5852e16a33361189b565b610989576040517fb635482d00000000000000000000000000000000000000000000000000000000815260040160405180910390fd5b3373ffffffffffffffffffffffffffffffffffffffff166008600084815260200190815260200160002060000160009054906101000a900473ffffffffffffffffffffffffffffffffffffffff1673ffffffffffffffffffffffffffffffffffffffff1614610a24576040517fd1effbc500000000000000000000000000000000000000000000000000000000815260040160405180910390fd5b60086000838152602001908152602001600020600080820160006101000a81549073ffffffffffffffffffffffffffffffffffffffff02191690556001820160009055600282016000610a779190612f47565b600382016000610a879190612f68565b600482016000610a979190612f68565b50505050565b60056020528060005260406000206000915090508060000160009054906101000a900473ffffffffffffffffffffffffffffffffffffffff1690806001015490806002018054610aec90614149565b80601f0160208091040260200160405190810160405280929190818152602001828054610b1890614149565b8015610b655780601f10610b3a57610100808354040283529160200191610b65565b820191906000526020600020905b815481529060010190602001808311610b4857829003601f168201915b505050505090806003018054610b7a90614149565b80601f0160208091040260200160405190810160405280929190818152602001828054610ba690614149565b8015610bf35780601f10610bc857610100808354040283529160200191610bf3565b820191906000526020600020905b815481529060010190602001808311610bd657829003601f168201915b5050505050908060040160009054906101000a900467ffffffffffffffff1690806005018054610c2290614149565b80601f0160208091040260200160405190810160405280929190818152602001828054610c4e90614149565b8015610c9b5780601f10610c7057610100808354040283529160200191610c9b565b820191906000526020600020905b815481529060010190602001808311610c7e57829003601f168201915b505050505090806006015490806007018054610cb690614149565b80601f0160208091040260200160405190810160405280929190818152602001828054610ce290614149565b8015610d2f5780601f10610d0457610100808354040283529160200191610d2f565b820191906000526020600020905b815481529060010190602001808311610d1257829003601f168201915b5050505050905088565b6060610d657f22c69ab406805e70d07fb1a6502af760601d3b977beadb295a9d76d5852e16a38361189b565b610d9b576040517fb635482d00000000000000000000000000000000000000000000000000000000815260040160405180910390fd5b600080606060005b600754811015610e38578573ffffffffffffffffffffffffffffffffffffffff166008600083815260200190815260200160002060000160009054906101000a900473ffffffffffffffffffffffffffffffffffffffff1673ffffffffffffffffffffffffffffffffffffffff1603610e25578380610e2190614040565b9450505b8080610e3090614040565b915050610da3565b5060008303610e4c578093505050506111db565b8267ffffffffffffffff811115610e6657610e65613831565b5b604051908082528060200260200182016040528015610e9f57816020015b610e8c612fa8565b815260200190600190039081610e845790505b50905060005b6007548110156111d3578573ffffffffffffffffffffffffffffffffffffffff166008600083815260200190815260200160002060000160009054906101000a900473ffffffffffffffffffffffffffffffffffffffff1673ffffffffffffffffffffffffffffffffffffffff16036111c057600860008281526020019081526020016000206040518060a00160405290816000820160009054906101000a900473ffffffffffffffffffffffffffffffffffffffff1673ffffffffffffffffffffffffffffffffffffffff1673ffffffffffffffffffffffffffffffffffffffff1681526020016001820154815260200160028201805480602002602001604051908101604052809291908181526020016000905b82821015611067578382906000526020600020018054610fda90614149565b80601f016020809104026020016040519081016040528092919081815260200182805461100690614149565b80156110535780601f1061102857610100808354040283529160200191611053565b820191906000526020600020905b81548152906001019060200180831161103657829003601f168201915b505050505081526020019060010190610fbb565b50505050815260200160038201805461107f90614149565b80601f01602080910402602001604051908101604052809291908181526020018280546110ab90614149565b80156110f85780601f106110cd576101008083540402835291602001916110f8565b820191906000526020600020905b8154815290600101906020018083116110db57829003601f168201915b5050505050815260200160048201805461111190614149565b80601f016020809104026020016040519081016040528092919081815260200182805461113d90614149565b801561118a5780601f1061115f5761010080835404028352916020019161118a565b820191906000526020600020905b81548152906001019060200180831161116d57829003601f168201915b5050505050815250508284815181106111a6576111a561417a565b5b602002602001018190525082806111bc90614040565b9350505b80806111cb90614040565b915050610ea5565b508093505050505b919050565b61120a7f22c69ab406805e70d07fb1a6502af760601d3b977beadb295a9d76d5852e16a3826107e8565b6112347f288a15c4a15d470e4cd9cad2f113b91206b520c26dbd3dd74627f0c057baa19c826107e8565b50565b6112617f288a15c4a15d470e4cd9cad2f113b91206b520c26dbd3dd74627f0c057baa19c85612c4b565b6040518060a001604052808573ffffffffffffffffffffffffffffffffffffffff16815260200160015481526020018481526020018381526020018267ffffffffffffffff16815250600460006001600081546112bd90614040565b919050819055815260200190815260200160002060008201518160000160006101000a81548173ffffffffffffffffffffffffffffffffffffffff021916908373ffffffffffffffffffffffffffffffffffffffff1602179055506020820151816001015560408201518160020190816113379190614355565b50606082015181600301908161134d9190614355565b5060808201518160040160006101000a81548167ffffffffffffffff021916908367ffffffffffffffff1602179055509050506001548473ffffffffffffffffffffffffffffffffffffffff167f85eed599a805f3df42798f4a50e4c1f02121ef1e89574c33c12780546a5dca8885856040516113cb929190614427565b60405180910390a350505050565b60006114057feefb95e842a3287179d933b4460be539a1d5af11aa8b325bb45c5c8dc92de4ed8361189b565b156114135760019050611418565b600090505b919050565b60025481565b6040518061010001604052808873ffffffffffffffffffffffffffffffffffffffff16815260200160025481526020018781526020018681526020018567ffffffffffffffff168152602001848152602001838152602001828152506005600060026000815461149290614040565b919050819055815260200190815260200160002060008201518160000160006101000a81548173ffffffffffffffffffffffffffffffffffffffff021916908373ffffffffffffffffffffffffffffffffffffffff16021790555060208201518160010155604082015181600201908161150c9190614355565b5060608201518160030190816115229190614355565b5060808201518160040160006101000a81548167ffffffffffffffff021916908367ffffffffffffffff16021790555060a08201518160050190816115679190614355565b5060c0820151816006015560e08201518160070190816115879190614355565b5090505082604051611599919061449a565b60405180910390206002548873ffffffffffffffffffffffffffffffffffffffff167f04a6ea88fbc8bfa42ae301df6427da4e592c03d2c604a0fd8c196d22f19907138989876040516115ee939291906144b1565b60405180910390a450505050505050565b60066020528060005260406000206000915090508060000160009054906101000a900473ffffffffffffffffffffffffffffffffffffffff169080600101549080600201805461164e90614149565b80601f016020809104026020016040519081016040528092919081815260200182805461167a90614149565b80156116c75780601f1061169c576101008083540402835291602001916116c7565b820191906000526020600020905b8154815290600101906020018083116116aa57829003601f168201915b5050505050908060030180546116dc90614149565b80601f016020809104026020016040519081016040528092919081815260200182805461170890614149565b80156117555780601f1061172a57610100808354040283529160200191611755565b820191906000526020600020905b81548152906001019060200180831161173857829003601f168201915b5050505050908060040160009054906101000a900467ffffffffffffffff169080600501805461178490614149565b80601f01602080910402602001604051908101604052809291908181526020018280546117b090614149565b80156117fd5780601f106117d2576101008083540402835291602001916117fd565b820191906000526020600020905b8154815290600101906020018083116117e057829003601f168201915b50505050509080600601549080600701805461181890614149565b80601f016020809104026020016040519081016040528092919081815260200182805461184490614149565b80156118915780601f1061186657610100808354040283529160200191611891565b820191906000526020600020905b81548152906001019060200180831161187457829003601f168201915b5050505050905088565b600080600084815260200190815260200160002060000160008373ffffffffffffffffffffffffffffffffffffffff1673ffffffffffffffffffffffffffffffffffffffff16815260200190815260200160002060009054906101000a900460ff16905092915050565b7feefb95e842a3287179d933b4460be539a1d5af11aa8b325bb45c5c8dc92de4ed81565b611931612fed565b611939612fed565b6000600190505b6001548111611b9c578373ffffffffffffffffffffffffffffffffffffffff166004600083815260200190815260200160002060000160009054906101000a900473ffffffffffffffffffffffffffffffffffffffff1673ffffffffffffffffffffffffffffffffffffffff1603611b8957600460008281526020019081526020016000206040518060a00160405290816000820160009054906101000a900473ffffffffffffffffffffffffffffffffffffffff1673ffffffffffffffffffffffffffffffffffffffff1673ffffffffffffffffffffffffffffffffffffffff16815260200160018201548152602001600282018054611a4090614149565b80601f0160208091040260200160405190810160405280929190818152602001828054611a6c90614149565b8015611ab95780601f10611a8e57610100808354040283529160200191611ab9565b820191906000526020600020905b815481529060010190602001808311611a9c57829003601f168201915b50505050508152602001600382018054611ad290614149565b80601f0160208091040260200160405190810160405280929190818152602001828054611afe90614149565b8015611b4b5780601f10611b2057610100808354040283529160200191611b4b565b820191906000526020600020905b815481529060010190602001808311611b2e57829003601f168201915b505050505081526020016004820160009054906101000a900467ffffffffffffffff1667ffffffffffffffff1667ffffffffffffffff168152505091505b8080611b9490614040565b915050611940565b5080915050919050565b6000801b81565b60086020528060005260406000206000915090508060000160009054906101000a900473ffffffffffffffffffffffffffffffffffffffff1690806001015490806003018054611bfc90614149565b80601f0160208091040260200160405190810160405280929190818152602001828054611c2890614149565b8015611c755780601f10611c4a57610100808354040283529160200191611c75565b820191906000526020600020905b815481529060010190602001808311611c5857829003601f168201915b505050505090806004018054611c8a90614149565b80601f0160208091040260200160405190810160405280929190818152602001828054611cb690614149565b8015611d035780601f10611cd857610100808354040283529160200191611d03565b820191906000526020600020905b815481529060010190602001808311611ce657829003601f168201915b5050505050905084565b611d377f22c69ab406805e70d07fb1a6502af760601d3b977beadb295a9d76d5852e16a33361189b565b611d6d576040517fb635482d00000000000000000000000000000000000000000000000000000000815260040160405180910390fd5b60006040518060a001604052803373ffffffffffffffffffffffffffffffffffffffff16815260200160075481526020018581526020018481526020018381525090508060086000600754815260200190815260200160002060008201518160000160006101000a81548173ffffffffffffffffffffffffffffffffffffffff021916908373ffffffffffffffffffffffffffffffffffffffff160217905550602082015181600101556040820151816002019080519060200190611e3392919061303c565b506060820151816003019081611e499190614355565b506080820151816004019081611e5f9190614355565b5090505060076000815480929190611e7690614040565b919050555050505050565b60046020528060005260406000206000915090508060000160009054906101000a900473ffffffffffffffffffffffffffffffffffffffff1690806001015490806002018054611ed090614149565b80601f0160208091040260200160405190810160405280929190818152602001828054611efc90614149565b8015611f495780601f10611f1e57610100808354040283529160200191611f49565b820191906000526020600020905b815481529060010190602001808311611f2c57829003601f168201915b505050505090806003018054611f5e90614149565b80601f0160208091040260200160405190810160405280929190818152602001828054611f8a90614149565b8015611fd75780601f10611fac57610100808354040283529160200191611fd7565b820191906000526020600020905b815481529060010190602001808311611fba57829003601f168201915b5050505050908060040160009054906101000a900467ffffffffffffffff16905085565b612004826107c9565b61200d81612a6e565b6120178383612b6a565b505050565b60035481565b61202a613095565b612032613095565b6000600190505b60035481116123c4578373ffffffffffffffffffffffffffffffffffffffff166006600083815260200190815260200160002060000160009054906101000a900473ffffffffffffffffffffffffffffffffffffffff1673ffffffffffffffffffffffffffffffffffffffff16036123b15760066000828152602001908152602001600020604051806101000160405290816000820160009054906101000a900473ffffffffffffffffffffffffffffffffffffffff1673ffffffffffffffffffffffffffffffffffffffff1673ffffffffffffffffffffffffffffffffffffffff1681526020016001820154815260200160028201805461213a90614149565b80601f016020809104026020016040519081016040528092919081815260200182805461216690614149565b80156121b35780601f10612188576101008083540402835291602001916121b3565b820191906000526020600020905b81548152906001019060200180831161219657829003601f168201915b505050505081526020016003820180546121cc90614149565b80601f01602080910402602001604051908101604052809291908181526020018280546121f890614149565b80156122455780601f1061221a57610100808354040283529160200191612245565b820191906000526020600020905b81548152906001019060200180831161222857829003601f168201915b505050505081526020016004820160009054906101000a900467ffffffffffffffff1667ffffffffffffffff1667ffffffffffffffff16815260200160058201805461229090614149565b80601f01602080910402602001604051908101604052809291908181526020018280546122bc90614149565b80156123095780601f106122de57610100808354040283529160200191612309565b820191906000526020600020905b8154815290600101906020018083116122ec57829003601f168201915b505050505081526020016006820154815260200160078201805461232c90614149565b80601f016020809104026020016040519081016040528092919081815260200182805461235890614149565b80156123a55780601f1061237a576101008083540402835291602001916123a5565b820191906000526020600020905b81548152906001019060200180831161238857829003601f168201915b50505050508152505091505b80806123bc90614040565b915050612039565b5080915050919050565b6123d66130fa565b6123de6130fa565b6000600190505b6002548111612770578373ffffffffffffffffffffffffffffffffffffffff166005600083815260200190815260200160002060000160009054906101000a900473ffffffffffffffffffffffffffffffffffffffff1673ffffffffffffffffffffffffffffffffffffffff160361275d5760056000828152602001908152602001600020604051806101000160405290816000820160009054906101000a900473ffffffffffffffffffffffffffffffffffffffff1673ffffffffffffffffffffffffffffffffffffffff1673ffffffffffffffffffffffffffffffffffffffff168152602001600182015481526020016002820180546124e690614149565b80601f016020809104026020016040519081016040528092919081815260200182805461251290614149565b801561255f5780601f106125345761010080835404028352916020019161255f565b820191906000526020600020905b81548152906001019060200180831161254257829003601f168201915b5050505050815260200160038201805461257890614149565b80601f01602080910402602001604051908101604052809291908181526020018280546125a490614149565b80156125f15780601f106125c6576101008083540402835291602001916125f1565b820191906000526020600020905b8154815290600101906020018083116125d457829003601f168201915b505050505081526020016004820160009054906101000a900467ffffffffffffffff1667ffffffffffffffff1667ffffffffffffffff16815260200160058201805461263c90614149565b80601f016020809104026020016040519081016040528092919081815260200182805461266890614149565b80156126b55780601f1061268a576101008083540402835291602001916126b5565b820191906000526020600020905b81548152906001019060200180831161269857829003601f168201915b50505050508152602001600682015481526020016007820180546126d890614149565b80601f016020809104026020016040519081016040528092919081815260200182805461270490614149565b80156127515780601f1061272657610100808354040283529160200191612751565b820191906000526020600020905b81548152906001019060200180831161273457829003601f168201915b50505050508152505091505b808061276890614040565b9150506123e5565b5080915050919050565b7f22c69ab406805e70d07fb1a6502af760601d3b977beadb295a9d76d5852e16a381565b60006127ca7f22c69ab406805e70d07fb1a6502af760601d3b977beadb295a9d76d5852e16a38361189b565b156127d857600190506127dd565b600090505b919050565b61280c7feefb95e842a3287179d933b4460be539a1d5af11aa8b325bb45c5c8dc92de4ed826107e8565b6128367f288a15c4a15d470e4cd9cad2f113b91206b520c26dbd3dd74627f0c057baa19c826107e8565b50565b6040518061010001604052808873ffffffffffffffffffffffffffffffffffffffff16815260200160035481526020018781526020018681526020018567ffffffffffffffff16815260200184815260200183815260200182815250600660006003600081546128a890614040565b919050819055815260200190815260200160002060008201518160000160006101000a81548173ffffffffffffffffffffffffffffffffffffffff021916908373ffffffffffffffffffffffffffffffffffffffff1602179055506020820151816001015560408201518160020190816129229190614355565b5060608201518160030190816129389190614355565b5060808201518160040160006101000a81548167ffffffffffffffff021916908367ffffffffffffffff16021790555060a082015181600501908161297d9190614355565b5060c0820151816006015560e082015181600701908161299d9190614355565b50905050816003548873ffffffffffffffffffffffffffffffffffffffff167fbf9971c571d2c0e80ed565aa69e0983a8888a2cacfb74bd03fa4f07b3d5e8f8889876040516129ed929190614427565b60405180910390a450505050505050565b60015481565b60007f01ffc9a7000000000000000000000000000000000000000000000000000000007bffffffffffffffffffffffffffffffffffffffffffffffffffffffff1916827bffffffffffffffffffffffffffffffffffffffffffffffffffffffff1916149050919050565b612a7f81612a7a612b62565b612c59565b50565b612a8c828261189b565b612b5e57600160008084815260200190815260200160002060000160008373ffffffffffffffffffffffffffffffffffffffff1673ffffffffffffffffffffffffffffffffffffffff16815260200190815260200160002060006101000a81548160ff021916908315150217905550612b03612b62565b73ffffffffffffffffffffffffffffffffffffffff168173ffffffffffffffffffffffffffffffffffffffff16837f2f8788117e7eff1d82e926ec794901d17c78024a50270940304540a733656f0d60405160405180910390a45b5050565b600033905090565b612b74828261189b565b15612c4757600080600084815260200190815260200160002060000160008373ffffffffffffffffffffffffffffffffffffffff1673ffffffffffffffffffffffffffffffffffffffff16815260200190815260200160002060006101000a81548160ff021916908315150217905550612bec612b62565b73ffffffffffffffffffffffffffffffffffffffff168173ffffffffffffffffffffffffffffffffffffffff16837ff6391f5c32d9c69d2a47ea670b442974b53935d1edc7fd64eb21e047a839171b60405160405180910390a45b5050565b612c558282612a82565b5050565b612c63828261189b565b612cda57612c7081612cde565b612c7e8360001c6020612d0b565b604051602001612c8f92919061458e565b6040516020818303038152906040526040517f08c379a0000000000000000000000000000000000000000000000000000000008152600401612cd191906145c8565b60405180910390fd5b5050565b6060612d048273ffffffffffffffffffffffffffffffffffffffff16601460ff16612d0b565b9050919050565b606060006002836002612d1e91906145ea565b612d28919061462c565b67ffffffffffffffff811115612d4157612d40613831565b5b6040519080825280601f01601f191660200182016040528015612d735781602001600182028036833780820191505090505b5090507f300000000000000000000000000000000000000000000000000000000000000081600081518110612dab57612daa61417a565b5b60200101907effffffffffffffffffffffffffffffffffffffffffffffffffffffffffffff1916908160001a9053507f780000000000000000000000000000000000000000000000000000000000000081600181518110612e0f57612e0e61417a565b5b60200101907effffffffffffffffffffffffffffffffffffffffffffffffffffffffffffff1916908160001a90535060006001846002612e4f91906145ea565b612e59919061462c565b90505b6001811115612ef9577f3031323334353637383961626364656600000000000000000000000000000000600f861660108110612e9b57612e9a61417a565b5b1a60f81b828281518110612eb257612eb161417a565b5b60200101907effffffffffffffffffffffffffffffffffffffffffffffffffffffffffffff1916908160001a905350600485901c945080612ef290614660565b9050612e5c565b5060008414612f3d576040517f08c379a0000000000000000000000000000000000000000000000000000000008152600401612f34906146d5565b60405180910390fd5b8091505092915050565b5080546000825590600052602060002090810190612f65919061315f565b50565b508054612f7490614149565b6000825580601f10612f865750612fa5565b601f016020900490600052602060002090810190612fa49190613183565b5b50565b6040518060a00160405280600073ffffffffffffffffffffffffffffffffffffffff168152602001600081526020016060815260200160608152602001606081525090565b6040518060a00160405280600073ffffffffffffffffffffffffffffffffffffffff168152602001600081526020016060815260200160608152602001600067ffffffffffffffff1681525090565b828054828255906000526020600020908101928215613084579160200282015b828111156130835782518290816130739190614355565b509160200191906001019061305c565b5b509050613091919061315f565b5090565b604051806101000160405280600073ffffffffffffffffffffffffffffffffffffffff168152602001600081526020016060815260200160608152602001600067ffffffffffffffff1681526020016060815260200160008152602001606081525090565b604051806101000160405280600073ffffffffffffffffffffffffffffffffffffffff168152602001600081526020016060815260200160608152602001600067ffffffffffffffff1681526020016060815260200160008152602001606081525090565b5b8082111561317f57600081816131769190612f68565b50600101613160565b5090565b5b8082111561319c576000816000905550600101613184565b5090565b6000604051905090565b600080fd5b600080fd5b60007fffffffff0000000000000000000000000000000000000000000000000000000082169050919050565b6131e9816131b4565b81146131f457600080fd5b50565b600081359050613206816131e0565b92915050565b600060208284031215613222576132216131aa565b5b6000613230848285016131f7565b91505092915050565b60008115159050919050565b61324e81613239565b82525050565b60006020820190506132696000830184613245565b92915050565b600073ffffffffffffffffffffffffffffffffffffffff82169050919050565b600061329a8261326f565b9050919050565b6132aa8161328f565b81146132b557600080fd5b50565b6000813590506132c7816132a1565b92915050565b6000602082840312156132e3576132e26131aa565b5b60006132f1848285016132b8565b91505092915050565b6000819050919050565b61330d816132fa565b82525050565b60006020820190506133286000830184613304565b92915050565b613337816132fa565b811461334257600080fd5b50565b6000813590506133548161332e565b92915050565b6000602082840312156133705761336f6131aa565b5b600061337e84828501613345565b91505092915050565b6000806040838503121561339e5761339d6131aa565b5b60006133ac85828601613345565b92505060206133bd858286016132b8565b9150509250929050565b6000819050919050565b6133da816133c7565b81146133e557600080fd5b50565b6000813590506133f7816133d1565b92915050565b600060208284031215613413576134126131aa565b5b6000613421848285016133e8565b91505092915050565b6134338161328f565b82525050565b613442816133c7565b82525050565b600081519050919050565b600082825260208201905092915050565b60005b83811015613482578082015181840152602081019050613467565b60008484015250505050565b6000601f19601f8301169050919050565b60006134aa82613448565b6134b48185613453565b93506134c4818560208601613464565b6134cd8161348e565b840191505092915050565b600067ffffffffffffffff82169050919050565b6134f5816134d8565b82525050565b600061010082019050613511600083018b61342a565b61351e602083018a613439565b8181036040830152613530818961349f565b90508181036060830152613544818861349f565b905061355360808301876134ec565b81810360a0830152613565818661349f565b905061357460c0830185613439565b81810360e0830152613586818461349f565b90509998505050505050505050565b600081519050919050565b600082825260208201905092915050565b6000819050602082019050919050565b6135ca8161328f565b82525050565b6135d9816133c7565b82525050565b600081519050919050565b600082825260208201905092915050565b6000819050602082019050919050565b600082825260208201905092915050565b600061362782613448565b613631818561360b565b9350613641818560208601613464565b61364a8161348e565b840191505092915050565b6000613661838361361c565b905092915050565b6000602082019050919050565b6000613681826135df565b61368b81856135ea565b93508360208202850161369d856135fb565b8060005b858110156136d957848403895281516136ba8582613655565b94506136c583613669565b925060208a019950506001810190506136a1565b50829750879550505050505092915050565b600060a08301600083015161370360008601826135c1565b50602083015161371660208601826135d0565b506040830151848203604086015261372e8282613676565b91505060608301518482036060860152613748828261361c565b91505060808301518482036080860152613762828261361c565b9150508091505092915050565b600061377b83836136eb565b905092915050565b6000602082019050919050565b600061379b82613595565b6137a581856135a0565b9350836020820285016137b7856135b1565b8060005b858110156137f357848403895281516137d4858261376f565b94506137df83613783565b925060208a019950506001810190506137bb565b50829750879550505050505092915050565b6000602082019050818103600083015261381f8184613790565b905092915050565b600080fd5b600080fd5b7f4e487b7100000000000000000000000000000000000000000000000000000000600052604160045260246000fd5b6138698261348e565b810181811067ffffffffffffffff8211171561388857613887613831565b5b80604052505050565b600061389b6131a0565b90506138a78282613860565b919050565b600067ffffffffffffffff8211156138c7576138c6613831565b5b6138d08261348e565b9050602081019050919050565b82818337600083830152505050565b60006138ff6138fa846138ac565b613891565b90508281526020810184848401111561391b5761391a61382c565b5b6139268482856138dd565b509392505050565b600082601f83011261394357613942613827565b5b81356139538482602086016138ec565b91505092915050565b613965816134d8565b811461397057600080fd5b50565b6000813590506139828161395c565b92915050565b600080600080608085870312156139a2576139a16131aa565b5b60006139b0878288016132b8565b945050602085013567ffffffffffffffff8111156139d1576139d06131af565b5b6139dd8782880161392e565b935050604085013567ffffffffffffffff8111156139fe576139fd6131af565b5b613a0a8782880161392e565b9250506060613a1b87828801613973565b91505092959194509250565b6000602082019050613a3c6000830184613439565b92915050565b600080600080600080600060e0888a031215613a6157613a606131aa565b5b6000613a6f8a828b016132b8565b975050602088013567ffffffffffffffff811115613a9057613a8f6131af565b5b613a9c8a828b0161392e565b965050604088013567ffffffffffffffff811115613abd57613abc6131af565b5b613ac98a828b0161392e565b9550506060613ada8a828b01613973565b945050608088013567ffffffffffffffff811115613afb57613afa6131af565b5b613b078a828b0161392e565b93505060a0613b188a828b016133e8565b92505060c088013567ffffffffffffffff811115613b3957613b386131af565b5b613b458a828b0161392e565b91505092959891949750929550565b613b5d816134d8565b82525050565b600060a083016000830151613b7b60008601826135c1565b506020830151613b8e60208601826135d0565b5060408301518482036040860152613ba6828261361c565b91505060608301518482036060860152613bc0828261361c565b9150506080830151613bd56080860182613b54565b508091505092915050565b60006020820190508181036000830152613bfa8184613b63565b905092915050565b6000608082019050613c17600083018761342a565b613c246020830186613439565b8181036040830152613c36818561349f565b90508181036060830152613c4a818461349f565b905095945050505050565b600067ffffffffffffffff821115613c7057613c6f613831565b5b602082029050602081019050919050565b600080fd5b6000613c99613c9484613c55565b613891565b90508083825260208201905060208402830185811115613cbc57613cbb613c81565b5b835b81811015613d0357803567ffffffffffffffff811115613ce157613ce0613827565b5b808601613cee898261392e565b85526020850194505050602081019050613cbe565b5050509392505050565b600082601f830112613d2257613d21613827565b5b8135613d32848260208601613c86565b91505092915050565b600080600060608486031215613d5457613d536131aa565b5b600084013567ffffffffffffffff811115613d7257613d716131af565b5b613d7e86828701613d0d565b935050602084013567ffffffffffffffff811115613d9f57613d9e6131af565b5b613dab8682870161392e565b925050604084013567ffffffffffffffff811115613dcc57613dcb6131af565b5b613dd88682870161392e565b9150509250925092565b600060a082019050613df7600083018861342a565b613e046020830187613439565b8181036040830152613e16818661349f565b90508181036060830152613e2a818561349f565b9050613e3960808301846134ec565b9695505050505050565b600061010083016000830151613e5c60008601826135c1565b506020830151613e6f60208601826135d0565b5060408301518482036040860152613e87828261361c565b91505060608301518482036060860152613ea1828261361c565b9150506080830151613eb66080860182613b54565b5060a083015184820360a0860152613ece828261361c565b91505060c0830151613ee360c08601826135d0565b5060e083015184820360e0860152613efb828261361c565b9150508091505092915050565b60006020820190508181036000830152613f228184613e43565b905092915050565b600061010083016000830151613f4360008601826135c1565b506020830151613f5660208601826135d0565b5060408301518482036040860152613f6e828261361c565b91505060608301518482036060860152613f88828261361c565b9150506080830151613f9d6080860182613b54565b5060a083015184820360a0860152613fb5828261361c565b91505060c0830151613fca60c08601826135d0565b5060e083015184820360e0860152613fe2828261361c565b9150508091505092915050565b600060208201905081810360008301526140098184613f2a565b905092915050565b7f4e487b7100000000000000000000000000000000000000000000000000000000600052601160045260246000fd5b600061404b826133c7565b91507fffffffffffffffffffffffffffffffffffffffffffffffffffffffffffffffff820361407d5761407c614011565b5b600182019050919050565b7f416363657373436f6e74726f6c3a2063616e206f6e6c792072656e6f756e636560008201527f20726f6c657320666f722073656c660000000000000000000000000000000000602082015250565b60006140e4602f83613453565b91506140ef82614088565b604082019050919050565b60006020820190508181036000830152614113816140d7565b9050919050565b7f4e487b7100000000000000000000000000000000000000000000000000000000600052602260045260246000fd5b6000600282049050600182168061416157607f821691505b6020821081036141745761417361411a565b5b50919050565b7f4e487b7100000000000000000000000000000000000000000000000000000000600052603260045260246000fd5b60008190508160005260206000209050919050565b60006020601f8301049050919050565b600082821b905092915050565b60006008830261420b7fffffffffffffffffffffffffffffffffffffffffffffffffffffffffffffffff826141ce565b61421586836141ce565b95508019841693508086168417925050509392505050565b6000819050919050565b600061425261424d614248846133c7565b61422d565b6133c7565b9050919050565b6000819050919050565b61426c83614237565b61428061427882614259565b8484546141db565b825550505050565b600090565b614295614288565b6142a0818484614263565b505050565b5b818110156142c4576142b960008261428d565b6001810190506142a6565b5050565b601f821115614309576142da816141a9565b6142e3846141be565b810160208510156142f2578190505b6143066142fe856141be565b8301826142a5565b50505b505050565b600082821c905092915050565b600061432c6000198460080261430e565b1980831691505092915050565b6000614345838361431b565b9150826002028217905092915050565b61435e82613448565b67ffffffffffffffff81111561437757614376613831565b5b6143818254614149565b61438c8282856142c8565b600060209050601f8311600181146143bf57600084156143ad578287015190505b6143b78582614339565b86555061441f565b601f1984166143cd866141a9565b60005b828110156143f5578489015182556001820191506020850194506020810190506143d0565b86831015614412578489015161440e601f89168261431b565b8355505b6001600288020188555050505b505050505050565b60006040820190508181036000830152614441818561349f565b90508181036020830152614455818461349f565b90509392505050565b600081905092915050565b600061447482613448565b61447e818561445e565b935061448e818560208601613464565b80840191505092915050565b60006144a68284614469565b915081905092915050565b600060608201905081810360008301526144cb818661349f565b905081810360208301526144df818561349f565b90506144ee6040830184613439565b949350505050565b7f416363657373436f6e74726f6c3a206163636f756e7420000000000000000000600082015250565b600061452c60178361445e565b9150614537826144f6565b601782019050919050565b7f206973206d697373696e6720726f6c6520000000000000000000000000000000600082015250565b600061457860118361445e565b915061458382614542565b601182019050919050565b60006145998261451f565b91506145a58285614469565b91506145b08261456b565b91506145bc8284614469565b91508190509392505050565b600060208201905081810360008301526145e2818461349f565b905092915050565b60006145f5826133c7565b9150614600836133c7565b925082820261460e816133c7565b9150828204841483151761462557614624614011565b5b5092915050565b6000614637826133c7565b9150614642836133c7565b925082820190508082111561465a57614659614011565b5b92915050565b600061466b826133c7565b91506000820361467e5761467d614011565b5b600182039050919050565b7f537472696e67733a20686578206c656e67746820696e73756666696369656e74600082015250565b60006146bf602083613453565b91506146ca82614689565b602082019050919050565b600060208201905081810360008301526146ee816146b2565b905091905056fea2646970667358221220c8afa4d7a1c5eb55c4a354ba0d87759aa8f6fd4c18d3dabac184f3d7ae44252764736f6c63430008110033",
  "linkReferences": {},
  "deployedLinkReferences": {}
}