{
  "_format": "hh-sol-artifact-1",
  "contractName": "FProduct",
  "sourceName": "contracts/FProduct.sol",
  "abi": [
    {
      "inputs": [
        {
          "internalType": "address",
          "name": "_users_contract_address",
          "type": "address"
        }
      ],
      "stateMutability": "nonpayable",
      "type": "constructor"
    },
    {
      "anonymous": false,
      "inputs": [
        {
          "indexed": true,
          "internalType": "address",
          "name": "owner",
          "type": "address"
        },
        {
          "indexed": true,
          "internalType": "address",
          "name": "approved",
          "type": "address"
        },
        {
          "indexed": true,
          "internalType": "uint256",
          "name": "tokenId",
          "type": "uint256"
        }
      ],
      "name": "Approval",
      "type": "event"
    },
    {
      "anonymous": false,
      "inputs": [
        {
          "indexed": true,
          "internalType": "address",
          "name": "owner",
          "type": "address"
        },
        {
          "indexed": true,
          "internalType": "address",
          "name": "operator",
          "type": "address"
        },
        {
          "indexed": false,
          "internalType": "bool",
          "name": "approved",
          "type": "bool"
        }
      ],
      "name": "ApprovalForAll",
      "type": "event"
    },
    {
      "anonymous": false,
      "inputs": [
        {
          "indexed": true,
          "internalType": "bytes32",
          "name": "role",
          "type": "bytes32"
        },
        {
          "indexed": true,
          "internalType": "bytes32",
          "name": "previousAdminRole",
          "type": "bytes32"
        },
        {
          "indexed": true,
          "internalType": "bytes32",
          "name": "newAdminRole",
          "type": "bytes32"
        }
      ],
      "name": "RoleAdminChanged",
      "type": "event"
    },
    {
      "anonymous": false,
      "inputs": [
        {
          "indexed": true,
          "internalType": "bytes32",
          "name": "role",
          "type": "bytes32"
        },
        {
          "indexed": true,
          "internalType": "address",
          "name": "account",
          "type": "address"
        },
        {
          "indexed": true,
          "internalType": "address",
          "name": "sender",
          "type": "address"
        }
      ],
      "name": "RoleGranted",
      "type": "event"
    },
    {
      "anonymous": false,
      "inputs": [
        {
          "indexed": true,
          "internalType": "bytes32",
          "name": "role",
          "type": "bytes32"
        },
        {
          "indexed": true,
          "internalType": "address",
          "name": "account",
          "type": "address"
        },
        {
          "indexed": true,
          "internalType": "address",
          "name": "sender",
          "type": "address"
        }
      ],
      "name": "RoleRevoked",
      "type": "event"
    },
    {
      "anonymous": false,
      "inputs": [
        {
          "indexed": true,
          "internalType": "address",
          "name": "from",
          "type": "address"
        },
        {
          "indexed": true,
          "internalType": "address",
          "name": "to",
          "type": "address"
        },
        {
          "indexed": true,
          "internalType": "uint256",
          "name": "tokenId",
          "type": "uint256"
        }
      ],
      "name": "Transfer",
      "type": "event"
    },
    {
      "inputs": [],
      "name": "DEFAULT_ADMIN_ROLE",
      "outputs": [
        {
          "internalType": "bytes32",
          "name": "",
          "type": "bytes32"
        }
      ],
      "stateMutability": "view",
      "type": "function"
    },
    {
      "inputs": [
        {
          "internalType": "address",
          "name": "to",
          "type": "address"
        },
        {
          "internalType": "uint256",
          "name": "tokenId",
          "type": "uint256"
        }
      ],
      "name": "approve",
      "outputs": [],
      "stateMutability": "nonpayable",
      "type": "function"
    },
    {
      "inputs": [
        {
          "internalType": "address",
          "name": "owner",
          "type": "address"
        }
      ],
      "name": "balanceOf",
      "outputs": [
        {
          "internalType": "uint256",
          "name": "",
          "type": "uint256"
        }
      ],
      "stateMutability": "view",
      "type": "function"
    },
    {
      "inputs": [
        {
          "internalType": "uint256",
          "name": "tokenId",
          "type": "uint256"
        }
      ],
      "name": "getApproved",
      "outputs": [
        {
          "internalType": "address",
          "name": "",
          "type": "address"
        }
      ],
      "stateMutability": "view",
      "type": "function"
    },
    {
      "inputs": [
        {
          "internalType": "bytes32",
          "name": "role",
          "type": "bytes32"
        }
      ],
      "name": "getRoleAdmin",
      "outputs": [
        {
          "internalType": "bytes32",
          "name": "",
          "type": "bytes32"
        }
      ],
      "stateMutability": "view",
      "type": "function"
    },
    {
      "inputs": [
        {
          "internalType": "address",
          "name": "_designer",
          "type": "address"
        }
      ],
      "name": "giveDRole",
      "outputs": [],
      "stateMutability": "nonpayable",
      "type": "function"
    },
    {
      "inputs": [
        {
          "internalType": "bytes32",
          "name": "role",
          "type": "bytes32"
        },
        {
          "internalType": "address",
          "name": "account",
          "type": "address"
        }
      ],
      "name": "grantRole",
      "outputs": [],
      "stateMutability": "nonpayable",
      "type": "function"
    },
    {
      "inputs": [
        {
          "internalType": "bytes32",
          "name": "role",
          "type": "bytes32"
        },
        {
          "internalType": "address",
          "name": "account",
          "type": "address"
        }
      ],
      "name": "hasRole",
      "outputs": [
        {
          "internalType": "bool",
          "name": "",
          "type": "bool"
        }
      ],
      "stateMutability": "view",
      "type": "function"
    },
    {
      "inputs": [
        {
          "internalType": "address",
          "name": "owner",
          "type": "address"
        },
        {
          "internalType": "address",
          "name": "operator",
          "type": "address"
        }
      ],
      "name": "isApprovedForAll",
      "outputs": [
        {
          "internalType": "bool",
          "name": "",
          "type": "bool"
        }
      ],
      "stateMutability": "view",
      "type": "function"
    },
    {
      "inputs": [
        {
          "internalType": "address",
          "name": "_designer",
          "type": "address"
        },
        {
          "internalType": "string",
          "name": "_name",
          "type": "string"
        },
        {
          "internalType": "string",
          "name": "_surname",
          "type": "string"
        },
        {
          "internalType": "uint64",
          "name": "_number",
          "type": "uint64"
        },
        {
          "internalType": "string",
          "name": "_email",
          "type": "string"
        },
        {
          "internalType": "uint256",
          "name": "_ssn",
          "type": "uint256"
        },
        {
          "internalType": "string",
          "name": "_location",
          "type": "string"
        }
      ],
      "name": "makeD",
      "outputs": [],
      "stateMutability": "nonpayable",
      "type": "function"
    },
    {
      "inputs": [],
      "name": "name",
      "outputs": [
        {
          "internalType": "string",
          "name": "",
          "type": "string"
        }
      ],
      "stateMutability": "view",
      "type": "function"
    },
    {
      "inputs": [
        {
          "internalType": "uint256",
          "name": "tokenId",
          "type": "uint256"
        }
      ],
      "name": "ownerOf",
      "outputs": [
        {
          "internalType": "address",
          "name": "",
          "type": "address"
        }
      ],
      "stateMutability": "view",
      "type": "function"
    },
    {
      "inputs": [
        {
          "internalType": "bytes32",
          "name": "role",
          "type": "bytes32"
        },
        {
          "internalType": "address",
          "name": "account",
          "type": "address"
        }
      ],
      "name": "renounceRole",
      "outputs": [],
      "stateMutability": "nonpayable",
      "type": "function"
    },
    {
      "inputs": [
        {
          "internalType": "bytes32",
          "name": "role",
          "type": "bytes32"
        },
        {
          "internalType": "address",
          "name": "account",
          "type": "address"
        }
      ],
      "name": "revokeRole",
      "outputs": [],
      "stateMutability": "nonpayable",
      "type": "function"
    },
    {
      "inputs": [
        {
          "internalType": "string",
          "name": "uri",
          "type": "string"
        }
      ],
      "name": "safeMint",
      "outputs": [],
      "stateMutability": "nonpayable",
      "type": "function"
    },
    {
      "inputs": [
        {
          "internalType": "address",
          "name": "from",
          "type": "address"
        },
        {
          "internalType": "address",
          "name": "to",
          "type": "address"
        },
        {
          "internalType": "uint256",
          "name": "tokenId",
          "type": "uint256"
        }
      ],
      "name": "safeTransferFrom",
      "outputs": [],
      "stateMutability": "nonpayable",
      "type": "function"
    },
    {
      "inputs": [
        {
          "internalType": "address",
          "name": "from",
          "type": "address"
        },
        {
          "internalType": "address",
          "name": "to",
          "type": "address"
        },
        {
          "internalType": "uint256",
          "name": "tokenId",
          "type": "uint256"
        },
        {
          "internalType": "bytes",
          "name": "data",
          "type": "bytes"
        }
      ],
      "name": "safeTransferFrom",
      "outputs": [],
      "stateMutability": "nonpayable",
      "type": "function"
    },
    {
      "inputs": [
        {
          "internalType": "address",
          "name": "operator",
          "type": "address"
        },
        {
          "internalType": "bool",
          "name": "approved",
          "type": "bool"
        }
      ],
      "name": "setApprovalForAll",
      "outputs": [],
      "stateMutability": "nonpayable",
      "type": "function"
    },
    {
      "inputs": [
        {
          "internalType": "bytes4",
          "name": "interfaceId",
          "type": "bytes4"
        }
      ],
      "name": "supportsInterface",
      "outputs": [
        {
          "internalType": "bool",
          "name": "",
          "type": "bool"
        }
      ],
      "stateMutability": "view",
      "type": "function"
    },
    {
      "inputs": [],
      "name": "symbol",
      "outputs": [
        {
          "internalType": "string",
          "name": "",
          "type": "string"
        }
      ],
      "stateMutability": "view",
      "type": "function"
    },
    {
      "inputs": [
        {
          "internalType": "uint256",
          "name": "_tokenId",
          "type": "uint256"
        }
      ],
      "name": "tokenURI",
      "outputs": [
        {
          "internalType": "string",
          "name": "",
          "type": "string"
        }
      ],
      "stateMutability": "view",
      "type": "function"
    },
    {
      "inputs": [
        {
          "internalType": "address",
          "name": "from",
          "type": "address"
        },
        {
          "internalType": "address",
          "name": "to",
          "type": "address"
        },
        {
          "internalType": "uint256",
          "name": "tokenId",
          "type": "uint256"
        }
      ],
      "name": "transferFrom",
      "outputs": [],
      "stateMutability": "nonpayable",
      "type": "function"
    }
  ],
  "bytecode": "0x60806040523480156200001157600080fd5b506040516200402a3803806200402a83398181016040528101906200003791906200017b565b6040518060400160405280600c81526020017f46696e616c50726f6475637400000000000000000000000000000000000000008152506040518060400160405280600281526020017f46500000000000000000000000000000000000000000000000000000000000008152508160009081620000b4919062000427565b508060019081620000c6919062000427565b50505080600960006101000a81548173ffffffffffffffffffffffffffffffffffffffff021916908373ffffffffffffffffffffffffffffffffffffffff160217905550506200050e565b600080fd5b600073ffffffffffffffffffffffffffffffffffffffff82169050919050565b6000620001438262000116565b9050919050565b620001558162000136565b81146200016157600080fd5b50565b60008151905062000175816200014a565b92915050565b60006020828403121562000194576200019362000111565b5b6000620001a48482850162000164565b91505092915050565b600081519050919050565b7f4e487b7100000000000000000000000000000000000000000000000000000000600052604160045260246000fd5b7f4e487b7100000000000000000000000000000000000000000000000000000000600052602260045260246000fd5b600060028204905060018216806200022f57607f821691505b602082108103620002455762000244620001e7565b5b50919050565b60008190508160005260206000209050919050565b60006020601f8301049050919050565b600082821b905092915050565b600060088302620002af7fffffffffffffffffffffffffffffffffffffffffffffffffffffffffffffffff8262000270565b620002bb868362000270565b95508019841693508086168417925050509392505050565b6000819050919050565b6000819050919050565b60006200030862000302620002fc84620002d3565b620002dd565b620002d3565b9050919050565b6000819050919050565b6200032483620002e7565b6200033c62000333826200030f565b8484546200027d565b825550505050565b600090565b6200035362000344565b6200036081848462000319565b505050565b5b8181101562000388576200037c60008262000349565b60018101905062000366565b5050565b601f821115620003d757620003a1816200024b565b620003ac8462000260565b81016020851015620003bc578190505b620003d4620003cb8562000260565b83018262000365565b50505b505050565b600082821c905092915050565b6000620003fc60001984600802620003dc565b1980831691505092915050565b6000620004178383620003e9565b9150826002028217905092915050565b6200043282620001ad565b67ffffffffffffffff8111156200044e576200044d620001b8565b5b6200045a825462000216565b620004678282856200038c565b600060209050601f8311600181146200049f57600084156200048a578287015190505b62000496858262000409565b86555062000506565b601f198416620004af866200024b565b60005b82811015620004d957848901518255600182019150602085019450602081019050620004b2565b86831015620004f95784890151620004f5601f891682620003e9565b8355505b6001600288020188555050505b505050505050565b613b0c806200051e6000396000f3fe608060405234801561001057600080fd5b50600436106101425760003560e01c806370a08231116100b8578063a22cb4651161007c578063a22cb46514610385578063b88d4fde146103a1578063c87b56dd146103bd578063cc63e59a146103ed578063d547741f14610409578063e985e9c51461042557610142565b806370a08231146102cd57806391d14854146102fd57806395d89b411461032d578063a16fbead1461034b578063a217fddf1461036757610142565b8063248a9ca31161010a578063248a9ca3146101fd5780632f2ff15d1461022d57806336568abe1461024957806342842e0e146102655780636352211e14610281578063695850fb146102b157610142565b806301ffc9a71461014757806306fdde0314610177578063081812fc14610195578063095ea7b3146101c557806323b872dd146101e1575b600080fd5b610161600480360381019061015c919061240c565b610455565b60405161016e9190612454565b60405180910390f35b61017f610467565b60405161018c91906124ff565b60405180910390f35b6101af60048036038101906101aa9190612557565b6104f9565b6040516101bc91906125c5565b60405180910390f35b6101df60048036038101906101da919061260c565b61053f565b005b6101fb60048036038101906101f6919061264c565b610656565b005b610217600480360381019061021291906126d5565b6106b6565b6040516102249190612711565b60405180910390f35b6102476004803603810190610242919061272c565b6106d6565b005b610263600480360381019061025e919061272c565b6106f7565b005b61027f600480360381019061027a919061264c565b61077a565b005b61029b60048036038101906102969190612557565b61079a565b6040516102a891906125c5565b60405180910390f35b6102cb60048036038101906102c691906128a1565b610820565b005b6102e760048036038101906102e291906128ea565b61087e565b6040516102f49190612926565b60405180910390f35b6103176004803603810190610312919061272c565b610935565b6040516103249190612454565b60405180910390f35b6103356109a0565b60405161034291906124ff565b60405180910390f35b61036560048036038101906103609190612981565b610a32565b005b61036f610ad4565b60405161037c9190612711565b60405180910390f35b61039f600480360381019061039a9190612abf565b610adb565b005b6103bb60048036038101906103b69190612ba0565b610af1565b005b6103d760048036038101906103d29190612557565b610b53565b6040516103e491906124ff565b60405180910390f35b610407600480360381019061040291906128ea565b610b65565b005b610423600480360381019061041e919061272c565b610bf5565b005b61043f600480360381019061043a9190612c23565b610c16565b60405161044c9190612454565b60405180910390f35b600061046082610caa565b9050919050565b60606000805461047690612c92565b80601f01602080910402602001604051908101604052809291908181526020018280546104a290612c92565b80156104ef5780601f106104c4576101008083540402835291602001916104ef565b820191906000526020600020905b8154815290600101906020018083116104d257829003601f168201915b5050505050905090565b600061050482610d24565b6004600083815260200190815260200160002060009054906101000a900473ffffffffffffffffffffffffffffffffffffffff169050919050565b600061054a8261079a565b90508073ffffffffffffffffffffffffffffffffffffffff168373ffffffffffffffffffffffffffffffffffffffff16036105ba576040517f08c379a00000000000000000000000000000000000000000000000000000000081526004016105b190612d35565b60405180910390fd5b8073ffffffffffffffffffffffffffffffffffffffff166105d9610d6f565b73ffffffffffffffffffffffffffffffffffffffff161480610608575061060781610602610d6f565b610c16565b5b610647576040517f08c379a000000000000000000000000000000000000000000000000000000000815260040161063e90612dc7565b60405180910390fd5b6106518383610d77565b505050565b610667610661610d6f565b82610e30565b6106a6576040517f08c379a000000000000000000000000000000000000000000000000000000000815260040161069d90612e59565b60405180910390fd5b6106b1838383610ec5565b505050565b600060076000838152602001908152602001600020600101549050919050565b6106df826106b6565b6106e8816111be565b6106f283836111d2565b505050565b6106ff610d6f565b73ffffffffffffffffffffffffffffffffffffffff168173ffffffffffffffffffffffffffffffffffffffff161461076c576040517f08c379a000000000000000000000000000000000000000000000000000000000815260040161076390612eeb565b60405180910390fd5b61077682826112b3565b5050565b61079583838360405180602001604052806000815250610af1565b505050565b6000806107a683611395565b9050600073ffffffffffffffffffffffffffffffffffffffff168173ffffffffffffffffffffffffffffffffffffffff1603610817576040517f08c379a000000000000000000000000000000000000000000000000000000000815260040161080e90612f57565b60405180910390fd5b80915050919050565b7f22c69ab406805e70d07fb1a6502af760601d3b977beadb295a9d76d5852e16a361084a816111be565b6008600081548092919061085d90612fa6565b919050555061086e336008546113d2565b61087a600854836113f0565b5050565b60008073ffffffffffffffffffffffffffffffffffffffff168273ffffffffffffffffffffffffffffffffffffffff16036108ee576040517f08c379a00000000000000000000000000000000000000000000000000000000081526004016108e590613060565b60405180910390fd5b600360008373ffffffffffffffffffffffffffffffffffffffff1673ffffffffffffffffffffffffffffffffffffffff168152602001908152602001600020549050919050565b60006007600084815260200190815260200160002060000160008373ffffffffffffffffffffffffffffffffffffffff1673ffffffffffffffffffffffffffffffffffffffff16815260200190815260200160002060009054906101000a900460ff16905092915050565b6060600180546109af90612c92565b80601f01602080910402602001604051908101604052809291908181526020018280546109db90612c92565b8015610a285780601f106109fd57610100808354040283529160200191610a28565b820191906000526020600020905b815481529060010190602001808311610a0b57829003601f168201915b5050505050905090565b600960009054906101000a900473ffffffffffffffffffffffffffffffffffffffff1673ffffffffffffffffffffffffffffffffffffffff166385f0f3c9888888888888886040518863ffffffff1660e01b8152600401610a99979695949392919061308f565b600060405180830381600087803b158015610ab357600080fd5b505af1158015610ac7573d6000803e3d6000fd5b5050505050505050505050565b6000801b81565b610aed610ae6610d6f565b838361145d565b5050565b610b02610afc610d6f565b83610e30565b610b41576040517f08c379a0000000000000000000000000000000000000000000000000000000008152600401610b3890612e59565b60405180910390fd5b610b4d848484846115c9565b50505050565b6060610b5e82611625565b9050919050565b600960009054906101000a900473ffffffffffffffffffffffffffffffffffffffff1673ffffffffffffffffffffffffffffffffffffffff166360c2e2d7826040518263ffffffff1660e01b8152600401610bc091906125c5565b600060405180830381600087803b158015610bda57600080fd5b505af1158015610bee573d6000803e3d6000fd5b5050505050565b610bfe826106b6565b610c07816111be565b610c1183836112b3565b505050565b6000600560008473ffffffffffffffffffffffffffffffffffffffff1673ffffffffffffffffffffffffffffffffffffffff16815260200190815260200160002060008373ffffffffffffffffffffffffffffffffffffffff1673ffffffffffffffffffffffffffffffffffffffff16815260200190815260200160002060009054906101000a900460ff16905092915050565b60007f7965db0b000000000000000000000000000000000000000000000000000000007bffffffffffffffffffffffffffffffffffffffffffffffffffffffff1916827bffffffffffffffffffffffffffffffffffffffffffffffffffffffff19161480610d1d5750610d1c82611737565b5b9050919050565b610d2d81611819565b610d6c576040517f08c379a0000000000000000000000000000000000000000000000000000000008152600401610d6390612f57565b60405180910390fd5b50565b600033905090565b816004600083815260200190815260200160002060006101000a81548173ffffffffffffffffffffffffffffffffffffffff021916908373ffffffffffffffffffffffffffffffffffffffff160217905550808273ffffffffffffffffffffffffffffffffffffffff16610dea8361079a565b73ffffffffffffffffffffffffffffffffffffffff167f8c5be1e5ebec7d5bd14f71427d1e84f3dd0314c0f7b2291e5b200ac8c7c3b92560405160405180910390a45050565b600080610e3c8361079a565b90508073ffffffffffffffffffffffffffffffffffffffff168473ffffffffffffffffffffffffffffffffffffffff161480610e7e5750610e7d8185610c16565b5b80610ebc57508373ffffffffffffffffffffffffffffffffffffffff16610ea4846104f9565b73ffffffffffffffffffffffffffffffffffffffff16145b91505092915050565b8273ffffffffffffffffffffffffffffffffffffffff16610ee58261079a565b73ffffffffffffffffffffffffffffffffffffffff1614610f3b576040517f08c379a0000000000000000000000000000000000000000000000000000000008152600401610f329061318c565b60405180910390fd5b600073ffffffffffffffffffffffffffffffffffffffff168273ffffffffffffffffffffffffffffffffffffffff1603610faa576040517f08c379a0000000000000000000000000000000000000000000000000000000008152600401610fa19061321e565b60405180910390fd5b610fb7838383600161185a565b8273ffffffffffffffffffffffffffffffffffffffff16610fd78261079a565b73ffffffffffffffffffffffffffffffffffffffff161461102d576040517f08c379a00000000000000000000000000000000000000000000000000000000081526004016110249061318c565b60405180910390fd5b6004600082815260200190815260200160002060006101000a81549073ffffffffffffffffffffffffffffffffffffffff02191690556001600360008573ffffffffffffffffffffffffffffffffffffffff1673ffffffffffffffffffffffffffffffffffffffff168152602001908152602001600020600082825403925050819055506001600360008473ffffffffffffffffffffffffffffffffffffffff1673ffffffffffffffffffffffffffffffffffffffff16815260200190815260200160002060008282540192505081905550816002600083815260200190815260200160002060006101000a81548173ffffffffffffffffffffffffffffffffffffffff021916908373ffffffffffffffffffffffffffffffffffffffff160217905550808273ffffffffffffffffffffffffffffffffffffffff168473ffffffffffffffffffffffffffffffffffffffff167fddf252ad1be2c89b69c2b068fc378daa952ba7f163c4a11628f55a4df523b3ef60405160405180910390a46111b98383836001611980565b505050565b6111cf816111ca610d6f565b611986565b50565b6111dc8282610935565b6112af5760016007600084815260200190815260200160002060000160008373ffffffffffffffffffffffffffffffffffffffff1673ffffffffffffffffffffffffffffffffffffffff16815260200190815260200160002060006101000a81548160ff021916908315150217905550611254610d6f565b73ffffffffffffffffffffffffffffffffffffffff168173ffffffffffffffffffffffffffffffffffffffff16837f2f8788117e7eff1d82e926ec794901d17c78024a50270940304540a733656f0d60405160405180910390a45b5050565b6112bd8282610935565b156113915760006007600084815260200190815260200160002060000160008373ffffffffffffffffffffffffffffffffffffffff1673ffffffffffffffffffffffffffffffffffffffff16815260200190815260200160002060006101000a81548160ff021916908315150217905550611336610d6f565b73ffffffffffffffffffffffffffffffffffffffff168173ffffffffffffffffffffffffffffffffffffffff16837ff6391f5c32d9c69d2a47ea670b442974b53935d1edc7fd64eb21e047a839171b60405160405180910390a45b5050565b60006002600083815260200190815260200160002060009054906101000a900473ffffffffffffffffffffffffffffffffffffffff169050919050565b6113ec828260405180602001604052806000815250611a0b565b5050565b6113f982611819565b611438576040517f08c379a000000000000000000000000000000000000000000000000000000000815260040161142f906132b0565b60405180910390fd5b80600660008481526020019081526020016000209081611458919061347c565b505050565b8173ffffffffffffffffffffffffffffffffffffffff168373ffffffffffffffffffffffffffffffffffffffff16036114cb576040517f08c379a00000000000000000000000000000000000000000000000000000000081526004016114c29061359a565b60405180910390fd5b80600560008573ffffffffffffffffffffffffffffffffffffffff1673ffffffffffffffffffffffffffffffffffffffff16815260200190815260200160002060008473ffffffffffffffffffffffffffffffffffffffff1673ffffffffffffffffffffffffffffffffffffffff16815260200190815260200160002060006101000a81548160ff0219169083151502179055508173ffffffffffffffffffffffffffffffffffffffff168373ffffffffffffffffffffffffffffffffffffffff167f17307eab39ab6107e8899845ad3d59bd9653f200f220920489ca2b5937696c31836040516115bc9190612454565b60405180910390a3505050565b6115d4848484610ec5565b6115e084848484611a66565b61161f576040517f08c379a00000000000000000000000000000000000000000000000000000000081526004016116169061362c565b60405180910390fd5b50505050565b606061163082610d24565b600060066000848152602001908152602001600020805461165090612c92565b80601f016020809104026020016040519081016040528092919081815260200182805461167c90612c92565b80156116c95780601f1061169e576101008083540402835291602001916116c9565b820191906000526020600020905b8154815290600101906020018083116116ac57829003601f168201915b5050505050905060006116da611bed565b905060008151036116ef578192505050611732565b60008251111561172457808260405160200161170c929190613688565b60405160208183030381529060405292505050611732565b61172d84611c04565b925050505b919050565b60007f80ac58cd000000000000000000000000000000000000000000000000000000007bffffffffffffffffffffffffffffffffffffffffffffffffffffffff1916827bffffffffffffffffffffffffffffffffffffffffffffffffffffffff1916148061180257507f5b5e139f000000000000000000000000000000000000000000000000000000007bffffffffffffffffffffffffffffffffffffffffffffffffffffffff1916827bffffffffffffffffffffffffffffffffffffffffffffffffffffffff1916145b80611812575061181182611c6c565b5b9050919050565b60008073ffffffffffffffffffffffffffffffffffffffff1661183b83611395565b73ffffffffffffffffffffffffffffffffffffffff1614159050919050565b600181111561197a57600073ffffffffffffffffffffffffffffffffffffffff168473ffffffffffffffffffffffffffffffffffffffff16146118ee5780600360008673ffffffffffffffffffffffffffffffffffffffff1673ffffffffffffffffffffffffffffffffffffffff16815260200190815260200160002060008282546118e691906136ac565b925050819055505b600073ffffffffffffffffffffffffffffffffffffffff168373ffffffffffffffffffffffffffffffffffffffff16146119795780600360008573ffffffffffffffffffffffffffffffffffffffff1673ffffffffffffffffffffffffffffffffffffffff168152602001908152602001600020600082825461197191906136e0565b925050819055505b5b50505050565b50505050565b6119908282610935565b611a075761199d81611cd6565b6119ab8360001c6020611d03565b6040516020016119bc9291906137ac565b6040516020818303038152906040526040517f08c379a00000000000000000000000000000000000000000000000000000000081526004016119fe91906124ff565b60405180910390fd5b5050565b611a158383611f3f565b611a226000848484611a66565b611a61576040517f08c379a0000000000000000000000000000000000000000000000000000000008152600401611a589061362c565b60405180910390fd5b505050565b6000611a878473ffffffffffffffffffffffffffffffffffffffff1661215c565b15611be0578373ffffffffffffffffffffffffffffffffffffffff1663150b7a02611ab0610d6f565b8786866040518563ffffffff1660e01b8152600401611ad2949392919061383b565b6020604051808303816000875af1925050508015611b0e57506040513d601f19601f82011682018060405250810190611b0b919061389c565b60015b611b90573d8060008114611b3e576040519150601f19603f3d011682016040523d82523d6000602084013e611b43565b606091505b506000815103611b88576040517f08c379a0000000000000000000000000000000000000000000000000000000008152600401611b7f9061362c565b60405180910390fd5b805181602001fd5b63150b7a0260e01b7bffffffffffffffffffffffffffffffffffffffffffffffffffffffff1916817bffffffffffffffffffffffffffffffffffffffffffffffffffffffff191614915050611be5565b600190505b949350505050565b606060405180602001604052806000815250905090565b6060611c0f82610d24565b6000611c19611bed565b90506000815111611c395760405180602001604052806000815250611c64565b80611c438461217f565b604051602001611c54929190613688565b6040516020818303038152906040525b915050919050565b60007f01ffc9a7000000000000000000000000000000000000000000000000000000007bffffffffffffffffffffffffffffffffffffffffffffffffffffffff1916827bffffffffffffffffffffffffffffffffffffffffffffffffffffffff1916149050919050565b6060611cfc8273ffffffffffffffffffffffffffffffffffffffff16601460ff16611d03565b9050919050565b606060006002836002611d1691906138c9565b611d2091906136e0565b67ffffffffffffffff811115611d3957611d38612776565b5b6040519080825280601f01601f191660200182016040528015611d6b5781602001600182028036833780820191505090505b5090507f300000000000000000000000000000000000000000000000000000000000000081600081518110611da357611da261390b565b5b60200101907effffffffffffffffffffffffffffffffffffffffffffffffffffffffffffff1916908160001a9053507f780000000000000000000000000000000000000000000000000000000000000081600181518110611e0757611e0661390b565b5b60200101907effffffffffffffffffffffffffffffffffffffffffffffffffffffffffffff1916908160001a90535060006001846002611e4791906138c9565b611e5191906136e0565b90505b6001811115611ef1577f3031323334353637383961626364656600000000000000000000000000000000600f861660108110611e9357611e9261390b565b5b1a60f81b828281518110611eaa57611ea961390b565b5b60200101907effffffffffffffffffffffffffffffffffffffffffffffffffffffffffffff1916908160001a905350600485901c945080611eea9061393a565b9050611e54565b5060008414611f35576040517f08c379a0000000000000000000000000000000000000000000000000000000008152600401611f2c906139af565b60405180910390fd5b8091505092915050565b600073ffffffffffffffffffffffffffffffffffffffff168273ffffffffffffffffffffffffffffffffffffffff1603611fae576040517f08c379a0000000000000000000000000000000000000000000000000000000008152600401611fa590613a1b565b60405180910390fd5b611fb781611819565b15611ff7576040517f08c379a0000000000000000000000000000000000000000000000000000000008152600401611fee90613a87565b60405180910390fd5b61200560008383600161185a565b61200e81611819565b1561204e576040517f08c379a000000000000000000000000000000000000000000000000000000000815260040161204590613a87565b60405180910390fd5b6001600360008473ffffffffffffffffffffffffffffffffffffffff1673ffffffffffffffffffffffffffffffffffffffff16815260200190815260200160002060008282540192505081905550816002600083815260200190815260200160002060006101000a81548173ffffffffffffffffffffffffffffffffffffffff021916908373ffffffffffffffffffffffffffffffffffffffff160217905550808273ffffffffffffffffffffffffffffffffffffffff16600073ffffffffffffffffffffffffffffffffffffffff167fddf252ad1be2c89b69c2b068fc378daa952ba7f163c4a11628f55a4df523b3ef60405160405180910390a4612158600083836001611980565b5050565b6000808273ffffffffffffffffffffffffffffffffffffffff163b119050919050565b60606000600161218e8461224d565b01905060008167ffffffffffffffff8111156121ad576121ac612776565b5b6040519080825280601f01601f1916602001820160405280156121df5781602001600182028036833780820191505090505b509050600082602001820190505b600115612242578080600190039150507f3031323334353637383961626364656600000000000000000000000000000000600a86061a8153600a858161223657612235613aa7565b5b049450600085036121ed575b819350505050919050565b600080600090507a184f03e93ff9f4daa797ed6e38ed64bf6a1f01000000000000000083106122ab577a184f03e93ff9f4daa797ed6e38ed64bf6a1f01000000000000000083816122a1576122a0613aa7565b5b0492506040810190505b6d04ee2d6d415b85acef810000000083106122e8576d04ee2d6d415b85acef810000000083816122de576122dd613aa7565b5b0492506020810190505b662386f26fc10000831061231757662386f26fc10000838161230d5761230c613aa7565b5b0492506010810190505b6305f5e1008310612340576305f5e100838161233657612335613aa7565b5b0492506008810190505b612710831061236557612710838161235b5761235a613aa7565b5b0492506004810190505b60648310612388576064838161237e5761237d613aa7565b5b0492506002810190505b600a8310612397576001810190505b80915050919050565b6000604051905090565b600080fd5b600080fd5b60007fffffffff0000000000000000000000000000000000000000000000000000000082169050919050565b6123e9816123b4565b81146123f457600080fd5b50565b600081359050612406816123e0565b92915050565b600060208284031215612422576124216123aa565b5b6000612430848285016123f7565b91505092915050565b60008115159050919050565b61244e81612439565b82525050565b60006020820190506124696000830184612445565b92915050565b600081519050919050565b600082825260208201905092915050565b60005b838110156124a957808201518184015260208101905061248e565b60008484015250505050565b6000601f19601f8301169050919050565b60006124d18261246f565b6124db818561247a565b93506124eb81856020860161248b565b6124f4816124b5565b840191505092915050565b6000602082019050818103600083015261251981846124c6565b905092915050565b6000819050919050565b61253481612521565b811461253f57600080fd5b50565b6000813590506125518161252b565b92915050565b60006020828403121561256d5761256c6123aa565b5b600061257b84828501612542565b91505092915050565b600073ffffffffffffffffffffffffffffffffffffffff82169050919050565b60006125af82612584565b9050919050565b6125bf816125a4565b82525050565b60006020820190506125da60008301846125b6565b92915050565b6125e9816125a4565b81146125f457600080fd5b50565b600081359050612606816125e0565b92915050565b60008060408385031215612623576126226123aa565b5b6000612631858286016125f7565b925050602061264285828601612542565b9150509250929050565b600080600060608486031215612665576126646123aa565b5b6000612673868287016125f7565b9350506020612684868287016125f7565b925050604061269586828701612542565b9150509250925092565b6000819050919050565b6126b28161269f565b81146126bd57600080fd5b50565b6000813590506126cf816126a9565b92915050565b6000602082840312156126eb576126ea6123aa565b5b60006126f9848285016126c0565b91505092915050565b61270b8161269f565b82525050565b60006020820190506127266000830184612702565b92915050565b60008060408385031215612743576127426123aa565b5b6000612751858286016126c0565b9250506020612762858286016125f7565b9150509250929050565b600080fd5b600080fd5b7f4e487b7100000000000000000000000000000000000000000000000000000000600052604160045260246000fd5b6127ae826124b5565b810181811067ffffffffffffffff821117156127cd576127cc612776565b5b80604052505050565b60006127e06123a0565b90506127ec82826127a5565b919050565b600067ffffffffffffffff82111561280c5761280b612776565b5b612815826124b5565b9050602081019050919050565b82818337600083830152505050565b600061284461283f846127f1565b6127d6565b9050828152602081018484840111156128605761285f612771565b5b61286b848285612822565b509392505050565b600082601f8301126128885761288761276c565b5b8135612898848260208601612831565b91505092915050565b6000602082840312156128b7576128b66123aa565b5b600082013567ffffffffffffffff8111156128d5576128d46123af565b5b6128e184828501612873565b91505092915050565b600060208284031215612900576128ff6123aa565b5b600061290e848285016125f7565b91505092915050565b61292081612521565b82525050565b600060208201905061293b6000830184612917565b92915050565b600067ffffffffffffffff82169050919050565b61295e81612941565b811461296957600080fd5b50565b60008135905061297b81612955565b92915050565b600080600080600080600060e0888a0312156129a05761299f6123aa565b5b60006129ae8a828b016125f7565b975050602088013567ffffffffffffffff8111156129cf576129ce6123af565b5b6129db8a828b01612873565b965050604088013567ffffffffffffffff8111156129fc576129fb6123af565b5b612a088a828b01612873565b9550506060612a198a828b0161296c565b945050608088013567ffffffffffffffff811115612a3a57612a396123af565b5b612a468a828b01612873565b93505060a0612a578a828b01612542565b92505060c088013567ffffffffffffffff811115612a7857612a776123af565b5b612a848a828b01612873565b91505092959891949750929550565b612a9c81612439565b8114612aa757600080fd5b50565b600081359050612ab981612a93565b92915050565b60008060408385031215612ad657612ad56123aa565b5b6000612ae4858286016125f7565b9250506020612af585828601612aaa565b9150509250929050565b600067ffffffffffffffff821115612b1a57612b19612776565b5b612b23826124b5565b9050602081019050919050565b6000612b43612b3e84612aff565b6127d6565b905082815260208101848484011115612b5f57612b5e612771565b5b612b6a848285612822565b509392505050565b600082601f830112612b8757612b8661276c565b5b8135612b97848260208601612b30565b91505092915050565b60008060008060808587031215612bba57612bb96123aa565b5b6000612bc8878288016125f7565b9450506020612bd9878288016125f7565b9350506040612bea87828801612542565b925050606085013567ffffffffffffffff811115612c0b57612c0a6123af565b5b612c1787828801612b72565b91505092959194509250565b60008060408385031215612c3a57612c396123aa565b5b6000612c48858286016125f7565b9250506020612c59858286016125f7565b9150509250929050565b7f4e487b7100000000000000000000000000000000000000000000000000000000600052602260045260246000fd5b60006002820490506001821680612caa57607f821691505b602082108103612cbd57612cbc612c63565b5b50919050565b7f4552433732313a20617070726f76616c20746f2063757272656e74206f776e6560008201527f7200000000000000000000000000000000000000000000000000000000000000602082015250565b6000612d1f60218361247a565b9150612d2a82612cc3565b604082019050919050565b60006020820190508181036000830152612d4e81612d12565b9050919050565b7f4552433732313a20617070726f76652063616c6c6572206973206e6f7420746f60008201527f6b656e206f776e6572206f7220617070726f76656420666f7220616c6c000000602082015250565b6000612db1603d8361247a565b9150612dbc82612d55565b604082019050919050565b60006020820190508181036000830152612de081612da4565b9050919050565b7f4552433732313a2063616c6c6572206973206e6f7420746f6b656e206f776e6560008201527f72206f7220617070726f76656400000000000000000000000000000000000000602082015250565b6000612e43602d8361247a565b9150612e4e82612de7565b604082019050919050565b60006020820190508181036000830152612e7281612e36565b9050919050565b7f416363657373436f6e74726f6c3a2063616e206f6e6c792072656e6f756e636560008201527f20726f6c657320666f722073656c660000000000000000000000000000000000602082015250565b6000612ed5602f8361247a565b9150612ee082612e79565b604082019050919050565b60006020820190508181036000830152612f0481612ec8565b9050919050565b7f4552433732313a20696e76616c696420746f6b656e2049440000000000000000600082015250565b6000612f4160188361247a565b9150612f4c82612f0b565b602082019050919050565b60006020820190508181036000830152612f7081612f34565b9050919050565b7f4e487b7100000000000000000000000000000000000000000000000000000000600052601160045260246000fd5b6000612fb182612521565b91507fffffffffffffffffffffffffffffffffffffffffffffffffffffffffffffffff8203612fe357612fe2612f77565b5b600182019050919050565b7f4552433732313a2061646472657373207a65726f206973206e6f74206120766160008201527f6c6964206f776e65720000000000000000000000000000000000000000000000602082015250565b600061304a60298361247a565b915061305582612fee565b604082019050919050565b600060208201905081810360008301526130798161303d565b9050919050565b61308981612941565b82525050565b600060e0820190506130a4600083018a6125b6565b81810360208301526130b681896124c6565b905081810360408301526130ca81886124c6565b90506130d96060830187613080565b81810360808301526130eb81866124c6565b90506130fa60a0830185612917565b81810360c083015261310c81846124c6565b905098975050505050505050565b7f4552433732313a207472616e736665722066726f6d20696e636f72726563742060008201527f6f776e6572000000000000000000000000000000000000000000000000000000602082015250565b600061317660258361247a565b91506131818261311a565b604082019050919050565b600060208201905081810360008301526131a581613169565b9050919050565b7f4552433732313a207472616e7366657220746f20746865207a65726f2061646460008201527f7265737300000000000000000000000000000000000000000000000000000000602082015250565b600061320860248361247a565b9150613213826131ac565b604082019050919050565b60006020820190508181036000830152613237816131fb565b9050919050565b7f45524337323155524953746f726167653a2055524920736574206f66206e6f6e60008201527f6578697374656e7420746f6b656e000000000000000000000000000000000000602082015250565b600061329a602e8361247a565b91506132a58261323e565b604082019050919050565b600060208201905081810360008301526132c98161328d565b9050919050565b60008190508160005260206000209050919050565b60006020601f8301049050919050565b600082821b905092915050565b6000600883026133327fffffffffffffffffffffffffffffffffffffffffffffffffffffffffffffffff826132f5565b61333c86836132f5565b95508019841693508086168417925050509392505050565b6000819050919050565b600061337961337461336f84612521565b613354565b612521565b9050919050565b6000819050919050565b6133938361335e565b6133a761339f82613380565b848454613302565b825550505050565b600090565b6133bc6133af565b6133c781848461338a565b505050565b5b818110156133eb576133e06000826133b4565b6001810190506133cd565b5050565b601f82111561343057613401816132d0565b61340a846132e5565b81016020851015613419578190505b61342d613425856132e5565b8301826133cc565b50505b505050565b600082821c905092915050565b600061345360001984600802613435565b1980831691505092915050565b600061346c8383613442565b9150826002028217905092915050565b6134858261246f565b67ffffffffffffffff81111561349e5761349d612776565b5b6134a88254612c92565b6134b38282856133ef565b600060209050601f8311600181146134e657600084156134d4578287015190505b6134de8582613460565b865550613546565b601f1984166134f4866132d0565b60005b8281101561351c578489015182556001820191506020850194506020810190506134f7565b868310156135395784890151613535601f891682613442565b8355505b6001600288020188555050505b505050505050565b7f4552433732313a20617070726f766520746f2063616c6c657200000000000000600082015250565b600061358460198361247a565b915061358f8261354e565b602082019050919050565b600060208201905081810360008301526135b381613577565b9050919050565b7f4552433732313a207472616e7366657220746f206e6f6e20455243373231526560008201527f63656976657220696d706c656d656e7465720000000000000000000000000000602082015250565b600061361660328361247a565b9150613621826135ba565b604082019050919050565b6000602082019050818103600083015261364581613609565b9050919050565b600081905092915050565b60006136628261246f565b61366c818561364c565b935061367c81856020860161248b565b80840191505092915050565b60006136948285613657565b91506136a08284613657565b91508190509392505050565b60006136b782612521565b91506136c283612521565b92508282039050818111156136da576136d9612f77565b5b92915050565b60006136eb82612521565b91506136f683612521565b925082820190508082111561370e5761370d612f77565b5b92915050565b7f416363657373436f6e74726f6c3a206163636f756e7420000000000000000000600082015250565b600061374a60178361364c565b915061375582613714565b601782019050919050565b7f206973206d697373696e6720726f6c6520000000000000000000000000000000600082015250565b600061379660118361364c565b91506137a182613760565b601182019050919050565b60006137b78261373d565b91506137c38285613657565b91506137ce82613789565b91506137da8284613657565b91508190509392505050565b600081519050919050565b600082825260208201905092915050565b600061380d826137e6565b61381781856137f1565b935061382781856020860161248b565b613830816124b5565b840191505092915050565b600060808201905061385060008301876125b6565b61385d60208301866125b6565b61386a6040830185612917565b818103606083015261387c8184613802565b905095945050505050565b600081519050613896816123e0565b92915050565b6000602082840312156138b2576138b16123aa565b5b60006138c084828501613887565b91505092915050565b60006138d482612521565b91506138df83612521565b92508282026138ed81612521565b9150828204841483151761390457613903612f77565b5b5092915050565b7f4e487b7100000000000000000000000000000000000000000000000000000000600052603260045260246000fd5b600061394582612521565b91506000820361395857613957612f77565b5b600182039050919050565b7f537472696e67733a20686578206c656e67746820696e73756666696369656e74600082015250565b600061399960208361247a565b91506139a482613963565b602082019050919050565b600060208201905081810360008301526139c88161398c565b9050919050565b7f4552433732313a206d696e7420746f20746865207a65726f2061646472657373600082015250565b6000613a0560208361247a565b9150613a10826139cf565b602082019050919050565b60006020820190508181036000830152613a34816139f8565b9050919050565b7f4552433732313a20746f6b656e20616c7265616479206d696e74656400000000600082015250565b6000613a71601c8361247a565b9150613a7c82613a3b565b602082019050919050565b60006020820190508181036000830152613aa081613a64565b9050919050565b7f4e487b7100000000000000000000000000000000000000000000000000000000600052601260045260246000fdfea2646970667358221220dd030e9ac57df02d3010b7f73ea4a50d224024d3aaf19cae344f3bda8d7d880e64736f6c63430008110033",
  "linkReferences": {},
  "deployedLinkReferences": {}
}