{
  "_format": "hh-sol-artifact-1",
  "contractName": "FProduct",
  "sourceName": "contracts/FProduct.sol",
  "abi": [
    {
      "inputs": [],
      "stateMutability": "nonpayable",
      "type": "constructor"
    },
    {
      "anonymous": false,
      "inputs": [
        {
          "indexed": true,
          "internalType": "address",
          "name": "owner",
          "type": "address"
        },
        {
          "indexed": true,
          "internalType": "address",
          "name": "approved",
          "type": "address"
        },
        {
          "indexed": true,
          "internalType": "uint256",
          "name": "tokenId",
          "type": "uint256"
        }
      ],
      "name": "Approval",
      "type": "event"
    },
    {
      "anonymous": false,
      "inputs": [
        {
          "indexed": true,
          "internalType": "address",
          "name": "owner",
          "type": "address"
        },
        {
          "indexed": true,
          "internalType": "address",
          "name": "operator",
          "type": "address"
        },
        {
          "indexed": false,
          "internalType": "bool",
          "name": "approved",
          "type": "bool"
        }
      ],
      "name": "ApprovalForAll",
      "type": "event"
    },
    {
      "anonymous": false,
      "inputs": [
        {
          "indexed": true,
          "internalType": "bytes32",
          "name": "role",
          "type": "bytes32"
        },
        {
          "indexed": true,
          "internalType": "bytes32",
          "name": "previousAdminRole",
          "type": "bytes32"
        },
        {
          "indexed": true,
          "internalType": "bytes32",
          "name": "newAdminRole",
          "type": "bytes32"
        }
      ],
      "name": "RoleAdminChanged",
      "type": "event"
    },
    {
      "anonymous": false,
      "inputs": [
        {
          "indexed": true,
          "internalType": "bytes32",
          "name": "role",
          "type": "bytes32"
        },
        {
          "indexed": true,
          "internalType": "address",
          "name": "account",
          "type": "address"
        },
        {
          "indexed": true,
          "internalType": "address",
          "name": "sender",
          "type": "address"
        }
      ],
      "name": "RoleGranted",
      "type": "event"
    },
    {
      "anonymous": false,
      "inputs": [
        {
          "indexed": true,
          "internalType": "bytes32",
          "name": "role",
          "type": "bytes32"
        },
        {
          "indexed": true,
          "internalType": "address",
          "name": "account",
          "type": "address"
        },
        {
          "indexed": true,
          "internalType": "address",
          "name": "sender",
          "type": "address"
        }
      ],
      "name": "RoleRevoked",
      "type": "event"
    },
    {
      "anonymous": false,
      "inputs": [
        {
          "indexed": true,
          "internalType": "address",
          "name": "from",
          "type": "address"
        },
        {
          "indexed": true,
          "internalType": "address",
          "name": "to",
          "type": "address"
        },
        {
          "indexed": true,
          "internalType": "uint256",
          "name": "tokenId",
          "type": "uint256"
        }
      ],
      "name": "Transfer",
      "type": "event"
    },
    {
      "inputs": [],
      "name": "DEFAULT_ADMIN_ROLE",
      "outputs": [
        {
          "internalType": "bytes32",
          "name": "",
          "type": "bytes32"
        }
      ],
      "stateMutability": "view",
      "type": "function"
    },
    {
      "inputs": [
        {
          "internalType": "address",
          "name": "to",
          "type": "address"
        },
        {
          "internalType": "uint256",
          "name": "tokenId",
          "type": "uint256"
        }
      ],
      "name": "approve",
      "outputs": [],
      "stateMutability": "nonpayable",
      "type": "function"
    },
    {
      "inputs": [
        {
          "internalType": "address",
          "name": "owner",
          "type": "address"
        }
      ],
      "name": "balanceOf",
      "outputs": [
        {
          "internalType": "uint256",
          "name": "",
          "type": "uint256"
        }
      ],
      "stateMutability": "view",
      "type": "function"
    },
    {
      "inputs": [
        {
          "internalType": "uint256",
          "name": "tokenId",
          "type": "uint256"
        }
      ],
      "name": "getApproved",
      "outputs": [
        {
          "internalType": "address",
          "name": "",
          "type": "address"
        }
      ],
      "stateMutability": "view",
      "type": "function"
    },
    {
      "inputs": [
        {
          "internalType": "bytes32",
          "name": "role",
          "type": "bytes32"
        }
      ],
      "name": "getRoleAdmin",
      "outputs": [
        {
          "internalType": "bytes32",
          "name": "",
          "type": "bytes32"
        }
      ],
      "stateMutability": "view",
      "type": "function"
    },
    {
      "inputs": [
        {
          "internalType": "bytes32",
          "name": "role",
          "type": "bytes32"
        },
        {
          "internalType": "address",
          "name": "account",
          "type": "address"
        }
      ],
      "name": "grantRole",
      "outputs": [],
      "stateMutability": "nonpayable",
      "type": "function"
    },
    {
      "inputs": [
        {
          "internalType": "bytes32",
          "name": "role",
          "type": "bytes32"
        },
        {
          "internalType": "address",
          "name": "account",
          "type": "address"
        }
      ],
      "name": "hasRole",
      "outputs": [
        {
          "internalType": "bool",
          "name": "",
          "type": "bool"
        }
      ],
      "stateMutability": "view",
      "type": "function"
    },
    {
      "inputs": [
        {
          "internalType": "address",
          "name": "owner",
          "type": "address"
        },
        {
          "internalType": "address",
          "name": "operator",
          "type": "address"
        }
      ],
      "name": "isApprovedForAll",
      "outputs": [
        {
          "internalType": "bool",
          "name": "",
          "type": "bool"
        }
      ],
      "stateMutability": "view",
      "type": "function"
    },
    {
      "inputs": [],
      "name": "name",
      "outputs": [
        {
          "internalType": "string",
          "name": "",
          "type": "string"
        }
      ],
      "stateMutability": "view",
      "type": "function"
    },
    {
      "inputs": [
        {
          "internalType": "uint256",
          "name": "tokenId",
          "type": "uint256"
        }
      ],
      "name": "ownerOf",
      "outputs": [
        {
          "internalType": "address",
          "name": "",
          "type": "address"
        }
      ],
      "stateMutability": "view",
      "type": "function"
    },
    {
      "inputs": [
        {
          "internalType": "bytes32",
          "name": "role",
          "type": "bytes32"
        },
        {
          "internalType": "address",
          "name": "account",
          "type": "address"
        }
      ],
      "name": "renounceRole",
      "outputs": [],
      "stateMutability": "nonpayable",
      "type": "function"
    },
    {
      "inputs": [
        {
          "internalType": "bytes32",
          "name": "role",
          "type": "bytes32"
        },
        {
          "internalType": "address",
          "name": "account",
          "type": "address"
        }
      ],
      "name": "revokeRole",
      "outputs": [],
      "stateMutability": "nonpayable",
      "type": "function"
    },
    {
      "inputs": [
        {
          "internalType": "string",
          "name": "uri",
          "type": "string"
        }
      ],
      "name": "safeMint",
      "outputs": [],
      "stateMutability": "nonpayable",
      "type": "function"
    },
    {
      "inputs": [
        {
          "internalType": "address",
          "name": "from",
          "type": "address"
        },
        {
          "internalType": "address",
          "name": "to",
          "type": "address"
        },
        {
          "internalType": "uint256",
          "name": "tokenId",
          "type": "uint256"
        }
      ],
      "name": "safeTransferFrom",
      "outputs": [],
      "stateMutability": "nonpayable",
      "type": "function"
    },
    {
      "inputs": [
        {
          "internalType": "address",
          "name": "from",
          "type": "address"
        },
        {
          "internalType": "address",
          "name": "to",
          "type": "address"
        },
        {
          "internalType": "uint256",
          "name": "tokenId",
          "type": "uint256"
        },
        {
          "internalType": "bytes",
          "name": "data",
          "type": "bytes"
        }
      ],
      "name": "safeTransferFrom",
      "outputs": [],
      "stateMutability": "nonpayable",
      "type": "function"
    },
    {
      "inputs": [
        {
          "internalType": "address",
          "name": "operator",
          "type": "address"
        },
        {
          "internalType": "bool",
          "name": "approved",
          "type": "bool"
        }
      ],
      "name": "setApprovalForAll",
      "outputs": [],
      "stateMutability": "nonpayable",
      "type": "function"
    },
    {
      "inputs": [
        {
          "internalType": "bytes4",
          "name": "interfaceId",
          "type": "bytes4"
        }
      ],
      "name": "supportsInterface",
      "outputs": [
        {
          "internalType": "bool",
          "name": "",
          "type": "bool"
        }
      ],
      "stateMutability": "view",
      "type": "function"
    },
    {
      "inputs": [],
      "name": "symbol",
      "outputs": [
        {
          "internalType": "string",
          "name": "",
          "type": "string"
        }
      ],
      "stateMutability": "view",
      "type": "function"
    },
    {
      "inputs": [
        {
          "internalType": "uint256",
          "name": "_tokenId",
          "type": "uint256"
        }
      ],
      "name": "tokenURI",
      "outputs": [
        {
          "internalType": "string",
          "name": "",
          "type": "string"
        }
      ],
      "stateMutability": "view",
      "type": "function"
    },
    {
      "inputs": [
        {
          "internalType": "address",
          "name": "from",
          "type": "address"
        },
        {
          "internalType": "address",
          "name": "to",
          "type": "address"
        },
        {
          "internalType": "uint256",
          "name": "tokenId",
          "type": "uint256"
        }
      ],
      "name": "transferFrom",
      "outputs": [],
      "stateMutability": "nonpayable",
      "type": "function"
    }
  ],
  "bytecode": "0x60806040523480156200001157600080fd5b506040518060400160405280600c81526020017f46696e616c50726f6475637400000000000000000000000000000000000000008152506040518060400160405280600281526020017f465000000000000000000000000000000000000000000000000000000000000081525081600090816200008f919062000324565b508060019081620000a1919062000324565b5050506200040b565b600081519050919050565b7f4e487b7100000000000000000000000000000000000000000000000000000000600052604160045260246000fd5b7f4e487b7100000000000000000000000000000000000000000000000000000000600052602260045260246000fd5b600060028204905060018216806200012c57607f821691505b602082108103620001425762000141620000e4565b5b50919050565b60008190508160005260206000209050919050565b60006020601f8301049050919050565b600082821b905092915050565b600060088302620001ac7fffffffffffffffffffffffffffffffffffffffffffffffffffffffffffffffff826200016d565b620001b886836200016d565b95508019841693508086168417925050509392505050565b6000819050919050565b6000819050919050565b600062000205620001ff620001f984620001d0565b620001da565b620001d0565b9050919050565b6000819050919050565b6200022183620001e4565b6200023962000230826200020c565b8484546200017a565b825550505050565b600090565b6200025062000241565b6200025d81848462000216565b505050565b5b8181101562000285576200027960008262000246565b60018101905062000263565b5050565b601f821115620002d4576200029e8162000148565b620002a9846200015d565b81016020851015620002b9578190505b620002d1620002c8856200015d565b83018262000262565b50505b505050565b600082821c905092915050565b6000620002f960001984600802620002d9565b1980831691505092915050565b6000620003148383620002e6565b9150826002028217905092915050565b6200032f82620000aa565b67ffffffffffffffff8111156200034b576200034a620000b5565b5b62000357825462000113565b6200036482828562000289565b600060209050601f8311600181146200039c576000841562000387578287015190505b62000393858262000306565b86555062000403565b601f198416620003ac8662000148565b60005b82811015620003d657848901518255600182019150602085019450602081019050620003af565b86831015620003f65784890151620003f2601f891682620002e6565b8355505b6001600288020188555050505b505050505050565b6137a0806200041b6000396000f3fe608060405234801561001057600080fd5b506004361061012c5760003560e01c8063695850fb116100ad578063a22cb46511610071578063a22cb46514610353578063b88d4fde1461036f578063c87b56dd1461038b578063d547741f146103bb578063e985e9c5146103d75761012c565b8063695850fb1461029b57806370a08231146102b757806391d14854146102e757806395d89b4114610317578063a217fddf146103355761012c565b8063248a9ca3116100f4578063248a9ca3146101e75780632f2ff15d1461021757806336568abe1461023357806342842e0e1461024f5780636352211e1461026b5761012c565b806301ffc9a71461013157806306fdde0314610161578063081812fc1461017f578063095ea7b3146101af57806323b872dd146101cb575b600080fd5b61014b6004803603810190610146919061228c565b610407565b60405161015891906122d4565b60405180910390f35b610169610419565b604051610176919061237f565b60405180910390f35b610199600480360381019061019491906123d7565b6104ab565b6040516101a69190612445565b60405180910390f35b6101c960048036038101906101c4919061248c565b6104f1565b005b6101e560048036038101906101e091906124cc565b610608565b005b61020160048036038101906101fc9190612555565b610668565b60405161020e9190612591565b60405180910390f35b610231600480360381019061022c91906125ac565b610688565b005b61024d600480360381019061024891906125ac565b6106a9565b005b610269600480360381019061026491906124cc565b61072c565b005b610285600480360381019061028091906123d7565b61074c565b6040516102929190612445565b60405180910390f35b6102b560048036038101906102b09190612721565b6107d2565b005b6102d160048036038101906102cc919061276a565b610830565b6040516102de91906127a6565b60405180910390f35b61030160048036038101906102fc91906125ac565b6108e7565b60405161030e91906122d4565b60405180910390f35b61031f610952565b60405161032c919061237f565b60405180910390f35b61033d6109e4565b60405161034a9190612591565b60405180910390f35b61036d600480360381019061036891906127ed565b6109eb565b005b610389600480360381019061038491906128ce565b610a01565b005b6103a560048036038101906103a091906123d7565b610a63565b6040516103b2919061237f565b60405180910390f35b6103d560048036038101906103d091906125ac565b610a75565b005b6103f160048036038101906103ec9190612951565b610a96565b6040516103fe91906122d4565b60405180910390f35b600061041282610b2a565b9050919050565b606060008054610428906129c0565b80601f0160208091040260200160405190810160405280929190818152602001828054610454906129c0565b80156104a15780601f10610476576101008083540402835291602001916104a1565b820191906000526020600020905b81548152906001019060200180831161048457829003601f168201915b5050505050905090565b60006104b682610ba4565b6004600083815260200190815260200160002060009054906101000a900473ffffffffffffffffffffffffffffffffffffffff169050919050565b60006104fc8261074c565b90508073ffffffffffffffffffffffffffffffffffffffff168373ffffffffffffffffffffffffffffffffffffffff160361056c576040517f08c379a000000000000000000000000000000000000000000000000000000000815260040161056390612a63565b60405180910390fd5b8073ffffffffffffffffffffffffffffffffffffffff1661058b610bef565b73ffffffffffffffffffffffffffffffffffffffff1614806105ba57506105b9816105b4610bef565b610a96565b5b6105f9576040517f08c379a00000000000000000000000000000000000000000000000000000000081526004016105f090612af5565b60405180910390fd5b6106038383610bf7565b505050565b610619610613610bef565b82610cb0565b610658576040517f08c379a000000000000000000000000000000000000000000000000000000000815260040161064f90612b87565b60405180910390fd5b610663838383610d45565b505050565b600060076000838152602001908152602001600020600101549050919050565b61069182610668565b61069a8161103e565b6106a48383611052565b505050565b6106b1610bef565b73ffffffffffffffffffffffffffffffffffffffff168173ffffffffffffffffffffffffffffffffffffffff161461071e576040517f08c379a000000000000000000000000000000000000000000000000000000000815260040161071590612c19565b60405180910390fd5b6107288282611133565b5050565b61074783838360405180602001604052806000815250610a01565b505050565b60008061075883611215565b9050600073ffffffffffffffffffffffffffffffffffffffff168173ffffffffffffffffffffffffffffffffffffffff16036107c9576040517f08c379a00000000000000000000000000000000000000000000000000000000081526004016107c090612c85565b60405180910390fd5b80915050919050565b7f22c69ab406805e70d07fb1a6502af760601d3b977beadb295a9d76d5852e16a36107fc8161103e565b6008600081548092919061080f90612cd4565b919050555061082033600854611252565b61082c60085483611270565b5050565b60008073ffffffffffffffffffffffffffffffffffffffff168273ffffffffffffffffffffffffffffffffffffffff16036108a0576040517f08c379a000000000000000000000000000000000000000000000000000000000815260040161089790612d8e565b60405180910390fd5b600360008373ffffffffffffffffffffffffffffffffffffffff1673ffffffffffffffffffffffffffffffffffffffff168152602001908152602001600020549050919050565b60006007600084815260200190815260200160002060000160008373ffffffffffffffffffffffffffffffffffffffff1673ffffffffffffffffffffffffffffffffffffffff16815260200190815260200160002060009054906101000a900460ff16905092915050565b606060018054610961906129c0565b80601f016020809104026020016040519081016040528092919081815260200182805461098d906129c0565b80156109da5780601f106109af576101008083540402835291602001916109da565b820191906000526020600020905b8154815290600101906020018083116109bd57829003601f168201915b5050505050905090565b6000801b81565b6109fd6109f6610bef565b83836112dd565b5050565b610a12610a0c610bef565b83610cb0565b610a51576040517f08c379a0000000000000000000000000000000000000000000000000000000008152600401610a4890612b87565b60405180910390fd5b610a5d84848484611449565b50505050565b6060610a6e826114a5565b9050919050565b610a7e82610668565b610a878161103e565b610a918383611133565b505050565b6000600560008473ffffffffffffffffffffffffffffffffffffffff1673ffffffffffffffffffffffffffffffffffffffff16815260200190815260200160002060008373ffffffffffffffffffffffffffffffffffffffff1673ffffffffffffffffffffffffffffffffffffffff16815260200190815260200160002060009054906101000a900460ff16905092915050565b60007f7965db0b000000000000000000000000000000000000000000000000000000007bffffffffffffffffffffffffffffffffffffffffffffffffffffffff1916827bffffffffffffffffffffffffffffffffffffffffffffffffffffffff19161480610b9d5750610b9c826115b7565b5b9050919050565b610bad81611699565b610bec576040517f08c379a0000000000000000000000000000000000000000000000000000000008152600401610be390612c85565b60405180910390fd5b50565b600033905090565b816004600083815260200190815260200160002060006101000a81548173ffffffffffffffffffffffffffffffffffffffff021916908373ffffffffffffffffffffffffffffffffffffffff160217905550808273ffffffffffffffffffffffffffffffffffffffff16610c6a8361074c565b73ffffffffffffffffffffffffffffffffffffffff167f8c5be1e5ebec7d5bd14f71427d1e84f3dd0314c0f7b2291e5b200ac8c7c3b92560405160405180910390a45050565b600080610cbc8361074c565b90508073ffffffffffffffffffffffffffffffffffffffff168473ffffffffffffffffffffffffffffffffffffffff161480610cfe5750610cfd8185610a96565b5b80610d3c57508373ffffffffffffffffffffffffffffffffffffffff16610d24846104ab565b73ffffffffffffffffffffffffffffffffffffffff16145b91505092915050565b8273ffffffffffffffffffffffffffffffffffffffff16610d658261074c565b73ffffffffffffffffffffffffffffffffffffffff1614610dbb576040517f08c379a0000000000000000000000000000000000000000000000000000000008152600401610db290612e20565b60405180910390fd5b600073ffffffffffffffffffffffffffffffffffffffff168273ffffffffffffffffffffffffffffffffffffffff1603610e2a576040517f08c379a0000000000000000000000000000000000000000000000000000000008152600401610e2190612eb2565b60405180910390fd5b610e3783838360016116da565b8273ffffffffffffffffffffffffffffffffffffffff16610e578261074c565b73ffffffffffffffffffffffffffffffffffffffff1614610ead576040517f08c379a0000000000000000000000000000000000000000000000000000000008152600401610ea490612e20565b60405180910390fd5b6004600082815260200190815260200160002060006101000a81549073ffffffffffffffffffffffffffffffffffffffff02191690556001600360008573ffffffffffffffffffffffffffffffffffffffff1673ffffffffffffffffffffffffffffffffffffffff168152602001908152602001600020600082825403925050819055506001600360008473ffffffffffffffffffffffffffffffffffffffff1673ffffffffffffffffffffffffffffffffffffffff16815260200190815260200160002060008282540192505081905550816002600083815260200190815260200160002060006101000a81548173ffffffffffffffffffffffffffffffffffffffff021916908373ffffffffffffffffffffffffffffffffffffffff160217905550808273ffffffffffffffffffffffffffffffffffffffff168473ffffffffffffffffffffffffffffffffffffffff167fddf252ad1be2c89b69c2b068fc378daa952ba7f163c4a11628f55a4df523b3ef60405160405180910390a46110398383836001611800565b505050565b61104f8161104a610bef565b611806565b50565b61105c82826108e7565b61112f5760016007600084815260200190815260200160002060000160008373ffffffffffffffffffffffffffffffffffffffff1673ffffffffffffffffffffffffffffffffffffffff16815260200190815260200160002060006101000a81548160ff0219169083151502179055506110d4610bef565b73ffffffffffffffffffffffffffffffffffffffff168173ffffffffffffffffffffffffffffffffffffffff16837f2f8788117e7eff1d82e926ec794901d17c78024a50270940304540a733656f0d60405160405180910390a45b5050565b61113d82826108e7565b156112115760006007600084815260200190815260200160002060000160008373ffffffffffffffffffffffffffffffffffffffff1673ffffffffffffffffffffffffffffffffffffffff16815260200190815260200160002060006101000a81548160ff0219169083151502179055506111b6610bef565b73ffffffffffffffffffffffffffffffffffffffff168173ffffffffffffffffffffffffffffffffffffffff16837ff6391f5c32d9c69d2a47ea670b442974b53935d1edc7fd64eb21e047a839171b60405160405180910390a45b5050565b60006002600083815260200190815260200160002060009054906101000a900473ffffffffffffffffffffffffffffffffffffffff169050919050565b61126c82826040518060200160405280600081525061188b565b5050565b61127982611699565b6112b8576040517f08c379a00000000000000000000000000000000000000000000000000000000081526004016112af90612f44565b60405180910390fd5b806006600084815260200190815260200160002090816112d89190613110565b505050565b8173ffffffffffffffffffffffffffffffffffffffff168373ffffffffffffffffffffffffffffffffffffffff160361134b576040517f08c379a00000000000000000000000000000000000000000000000000000000081526004016113429061322e565b60405180910390fd5b80600560008573ffffffffffffffffffffffffffffffffffffffff1673ffffffffffffffffffffffffffffffffffffffff16815260200190815260200160002060008473ffffffffffffffffffffffffffffffffffffffff1673ffffffffffffffffffffffffffffffffffffffff16815260200190815260200160002060006101000a81548160ff0219169083151502179055508173ffffffffffffffffffffffffffffffffffffffff168373ffffffffffffffffffffffffffffffffffffffff167f17307eab39ab6107e8899845ad3d59bd9653f200f220920489ca2b5937696c318360405161143c91906122d4565b60405180910390a3505050565b611454848484610d45565b611460848484846118e6565b61149f576040517f08c379a0000000000000000000000000000000000000000000000000000000008152600401611496906132c0565b60405180910390fd5b50505050565b60606114b082610ba4565b60006006600084815260200190815260200160002080546114d0906129c0565b80601f01602080910402602001604051908101604052809291908181526020018280546114fc906129c0565b80156115495780601f1061151e57610100808354040283529160200191611549565b820191906000526020600020905b81548152906001019060200180831161152c57829003601f168201915b50505050509050600061155a611a6d565b9050600081510361156f5781925050506115b2565b6000825111156115a457808260405160200161158c92919061331c565b604051602081830303815290604052925050506115b2565b6115ad84611a84565b925050505b919050565b60007f80ac58cd000000000000000000000000000000000000000000000000000000007bffffffffffffffffffffffffffffffffffffffffffffffffffffffff1916827bffffffffffffffffffffffffffffffffffffffffffffffffffffffff1916148061168257507f5b5e139f000000000000000000000000000000000000000000000000000000007bffffffffffffffffffffffffffffffffffffffffffffffffffffffff1916827bffffffffffffffffffffffffffffffffffffffffffffffffffffffff1916145b80611692575061169182611aec565b5b9050919050565b60008073ffffffffffffffffffffffffffffffffffffffff166116bb83611215565b73ffffffffffffffffffffffffffffffffffffffff1614159050919050565b60018111156117fa57600073ffffffffffffffffffffffffffffffffffffffff168473ffffffffffffffffffffffffffffffffffffffff161461176e5780600360008673ffffffffffffffffffffffffffffffffffffffff1673ffffffffffffffffffffffffffffffffffffffff16815260200190815260200160002060008282546117669190613340565b925050819055505b600073ffffffffffffffffffffffffffffffffffffffff168373ffffffffffffffffffffffffffffffffffffffff16146117f95780600360008573ffffffffffffffffffffffffffffffffffffffff1673ffffffffffffffffffffffffffffffffffffffff16815260200190815260200160002060008282546117f19190613374565b925050819055505b5b50505050565b50505050565b61181082826108e7565b6118875761181d81611b56565b61182b8360001c6020611b83565b60405160200161183c929190613440565b6040516020818303038152906040526040517f08c379a000000000000000000000000000000000000000000000000000000000815260040161187e919061237f565b60405180910390fd5b5050565b6118958383611dbf565b6118a260008484846118e6565b6118e1576040517f08c379a00000000000000000000000000000000000000000000000000000000081526004016118d8906132c0565b60405180910390fd5b505050565b60006119078473ffffffffffffffffffffffffffffffffffffffff16611fdc565b15611a60578373ffffffffffffffffffffffffffffffffffffffff1663150b7a02611930610bef565b8786866040518563ffffffff1660e01b815260040161195294939291906134cf565b6020604051808303816000875af192505050801561198e57506040513d601f19601f8201168201806040525081019061198b9190613530565b60015b611a10573d80600081146119be576040519150601f19603f3d011682016040523d82523d6000602084013e6119c3565b606091505b506000815103611a08576040517f08c379a00000000000000000000000000000000000000000000000000000000081526004016119ff906132c0565b60405180910390fd5b805181602001fd5b63150b7a0260e01b7bffffffffffffffffffffffffffffffffffffffffffffffffffffffff1916817bffffffffffffffffffffffffffffffffffffffffffffffffffffffff191614915050611a65565b600190505b949350505050565b606060405180602001604052806000815250905090565b6060611a8f82610ba4565b6000611a99611a6d565b90506000815111611ab95760405180602001604052806000815250611ae4565b80611ac384611fff565b604051602001611ad492919061331c565b6040516020818303038152906040525b915050919050565b60007f01ffc9a7000000000000000000000000000000000000000000000000000000007bffffffffffffffffffffffffffffffffffffffffffffffffffffffff1916827bffffffffffffffffffffffffffffffffffffffffffffffffffffffff1916149050919050565b6060611b7c8273ffffffffffffffffffffffffffffffffffffffff16601460ff16611b83565b9050919050565b606060006002836002611b96919061355d565b611ba09190613374565b67ffffffffffffffff811115611bb957611bb86125f6565b5b6040519080825280601f01601f191660200182016040528015611beb5781602001600182028036833780820191505090505b5090507f300000000000000000000000000000000000000000000000000000000000000081600081518110611c2357611c2261359f565b5b60200101907effffffffffffffffffffffffffffffffffffffffffffffffffffffffffffff1916908160001a9053507f780000000000000000000000000000000000000000000000000000000000000081600181518110611c8757611c8661359f565b5b60200101907effffffffffffffffffffffffffffffffffffffffffffffffffffffffffffff1916908160001a90535060006001846002611cc7919061355d565b611cd19190613374565b90505b6001811115611d71577f3031323334353637383961626364656600000000000000000000000000000000600f861660108110611d1357611d1261359f565b5b1a60f81b828281518110611d2a57611d2961359f565b5b60200101907effffffffffffffffffffffffffffffffffffffffffffffffffffffffffffff1916908160001a905350600485901c945080611d6a906135ce565b9050611cd4565b5060008414611db5576040517f08c379a0000000000000000000000000000000000000000000000000000000008152600401611dac90613643565b60405180910390fd5b8091505092915050565b600073ffffffffffffffffffffffffffffffffffffffff168273ffffffffffffffffffffffffffffffffffffffff1603611e2e576040517f08c379a0000000000000000000000000000000000000000000000000000000008152600401611e25906136af565b60405180910390fd5b611e3781611699565b15611e77576040517f08c379a0000000000000000000000000000000000000000000000000000000008152600401611e6e9061371b565b60405180910390fd5b611e856000838360016116da565b611e8e81611699565b15611ece576040517f08c379a0000000000000000000000000000000000000000000000000000000008152600401611ec59061371b565b60405180910390fd5b6001600360008473ffffffffffffffffffffffffffffffffffffffff1673ffffffffffffffffffffffffffffffffffffffff16815260200190815260200160002060008282540192505081905550816002600083815260200190815260200160002060006101000a81548173ffffffffffffffffffffffffffffffffffffffff021916908373ffffffffffffffffffffffffffffffffffffffff160217905550808273ffffffffffffffffffffffffffffffffffffffff16600073ffffffffffffffffffffffffffffffffffffffff167fddf252ad1be2c89b69c2b068fc378daa952ba7f163c4a11628f55a4df523b3ef60405160405180910390a4611fd8600083836001611800565b5050565b6000808273ffffffffffffffffffffffffffffffffffffffff163b119050919050565b60606000600161200e846120cd565b01905060008167ffffffffffffffff81111561202d5761202c6125f6565b5b6040519080825280601f01601f19166020018201604052801561205f5781602001600182028036833780820191505090505b509050600082602001820190505b6001156120c2578080600190039150507f3031323334353637383961626364656600000000000000000000000000000000600a86061a8153600a85816120b6576120b561373b565b5b0494506000850361206d575b819350505050919050565b600080600090507a184f03e93ff9f4daa797ed6e38ed64bf6a1f010000000000000000831061212b577a184f03e93ff9f4daa797ed6e38ed64bf6a1f01000000000000000083816121215761212061373b565b5b0492506040810190505b6d04ee2d6d415b85acef81000000008310612168576d04ee2d6d415b85acef8100000000838161215e5761215d61373b565b5b0492506020810190505b662386f26fc10000831061219757662386f26fc10000838161218d5761218c61373b565b5b0492506010810190505b6305f5e10083106121c0576305f5e10083816121b6576121b561373b565b5b0492506008810190505b61271083106121e55761271083816121db576121da61373b565b5b0492506004810190505b6064831061220857606483816121fe576121fd61373b565b5b0492506002810190505b600a8310612217576001810190505b80915050919050565b6000604051905090565b600080fd5b600080fd5b60007fffffffff0000000000000000000000000000000000000000000000000000000082169050919050565b61226981612234565b811461227457600080fd5b50565b60008135905061228681612260565b92915050565b6000602082840312156122a2576122a161222a565b5b60006122b084828501612277565b91505092915050565b60008115159050919050565b6122ce816122b9565b82525050565b60006020820190506122e960008301846122c5565b92915050565b600081519050919050565b600082825260208201905092915050565b60005b8381101561232957808201518184015260208101905061230e565b60008484015250505050565b6000601f19601f8301169050919050565b6000612351826122ef565b61235b81856122fa565b935061236b81856020860161230b565b61237481612335565b840191505092915050565b600060208201905081810360008301526123998184612346565b905092915050565b6000819050919050565b6123b4816123a1565b81146123bf57600080fd5b50565b6000813590506123d1816123ab565b92915050565b6000602082840312156123ed576123ec61222a565b5b60006123fb848285016123c2565b91505092915050565b600073ffffffffffffffffffffffffffffffffffffffff82169050919050565b600061242f82612404565b9050919050565b61243f81612424565b82525050565b600060208201905061245a6000830184612436565b92915050565b61246981612424565b811461247457600080fd5b50565b60008135905061248681612460565b92915050565b600080604083850312156124a3576124a261222a565b5b60006124b185828601612477565b92505060206124c2858286016123c2565b9150509250929050565b6000806000606084860312156124e5576124e461222a565b5b60006124f386828701612477565b935050602061250486828701612477565b9250506040612515868287016123c2565b9150509250925092565b6000819050919050565b6125328161251f565b811461253d57600080fd5b50565b60008135905061254f81612529565b92915050565b60006020828403121561256b5761256a61222a565b5b600061257984828501612540565b91505092915050565b61258b8161251f565b82525050565b60006020820190506125a66000830184612582565b92915050565b600080604083850312156125c3576125c261222a565b5b60006125d185828601612540565b92505060206125e285828601612477565b9150509250929050565b600080fd5b600080fd5b7f4e487b7100000000000000000000000000000000000000000000000000000000600052604160045260246000fd5b61262e82612335565b810181811067ffffffffffffffff8211171561264d5761264c6125f6565b5b80604052505050565b6000612660612220565b905061266c8282612625565b919050565b600067ffffffffffffffff82111561268c5761268b6125f6565b5b61269582612335565b9050602081019050919050565b82818337600083830152505050565b60006126c46126bf84612671565b612656565b9050828152602081018484840111156126e0576126df6125f1565b5b6126eb8482856126a2565b509392505050565b600082601f830112612708576127076125ec565b5b81356127188482602086016126b1565b91505092915050565b6000602082840312156127375761273661222a565b5b600082013567ffffffffffffffff8111156127555761275461222f565b5b612761848285016126f3565b91505092915050565b6000602082840312156127805761277f61222a565b5b600061278e84828501612477565b91505092915050565b6127a0816123a1565b82525050565b60006020820190506127bb6000830184612797565b92915050565b6127ca816122b9565b81146127d557600080fd5b50565b6000813590506127e7816127c1565b92915050565b600080604083850312156128045761280361222a565b5b600061281285828601612477565b9250506020612823858286016127d8565b9150509250929050565b600067ffffffffffffffff821115612848576128476125f6565b5b61285182612335565b9050602081019050919050565b600061287161286c8461282d565b612656565b90508281526020810184848401111561288d5761288c6125f1565b5b6128988482856126a2565b509392505050565b600082601f8301126128b5576128b46125ec565b5b81356128c584826020860161285e565b91505092915050565b600080600080608085870312156128e8576128e761222a565b5b60006128f687828801612477565b945050602061290787828801612477565b9350506040612918878288016123c2565b925050606085013567ffffffffffffffff8111156129395761293861222f565b5b612945878288016128a0565b91505092959194509250565b600080604083850312156129685761296761222a565b5b600061297685828601612477565b925050602061298785828601612477565b9150509250929050565b7f4e487b7100000000000000000000000000000000000000000000000000000000600052602260045260246000fd5b600060028204905060018216806129d857607f821691505b6020821081036129eb576129ea612991565b5b50919050565b7f4552433732313a20617070726f76616c20746f2063757272656e74206f776e6560008201527f7200000000000000000000000000000000000000000000000000000000000000602082015250565b6000612a4d6021836122fa565b9150612a58826129f1565b604082019050919050565b60006020820190508181036000830152612a7c81612a40565b9050919050565b7f4552433732313a20617070726f76652063616c6c6572206973206e6f7420746f60008201527f6b656e206f776e6572206f7220617070726f76656420666f7220616c6c000000602082015250565b6000612adf603d836122fa565b9150612aea82612a83565b604082019050919050565b60006020820190508181036000830152612b0e81612ad2565b9050919050565b7f4552433732313a2063616c6c6572206973206e6f7420746f6b656e206f776e6560008201527f72206f7220617070726f76656400000000000000000000000000000000000000602082015250565b6000612b71602d836122fa565b9150612b7c82612b15565b604082019050919050565b60006020820190508181036000830152612ba081612b64565b9050919050565b7f416363657373436f6e74726f6c3a2063616e206f6e6c792072656e6f756e636560008201527f20726f6c657320666f722073656c660000000000000000000000000000000000602082015250565b6000612c03602f836122fa565b9150612c0e82612ba7565b604082019050919050565b60006020820190508181036000830152612c3281612bf6565b9050919050565b7f4552433732313a20696e76616c696420746f6b656e2049440000000000000000600082015250565b6000612c6f6018836122fa565b9150612c7a82612c39565b602082019050919050565b60006020820190508181036000830152612c9e81612c62565b9050919050565b7f4e487b7100000000000000000000000000000000000000000000000000000000600052601160045260246000fd5b6000612cdf826123a1565b91507fffffffffffffffffffffffffffffffffffffffffffffffffffffffffffffffff8203612d1157612d10612ca5565b5b600182019050919050565b7f4552433732313a2061646472657373207a65726f206973206e6f74206120766160008201527f6c6964206f776e65720000000000000000000000000000000000000000000000602082015250565b6000612d786029836122fa565b9150612d8382612d1c565b604082019050919050565b60006020820190508181036000830152612da781612d6b565b9050919050565b7f4552433732313a207472616e736665722066726f6d20696e636f72726563742060008201527f6f776e6572000000000000000000000000000000000000000000000000000000602082015250565b6000612e0a6025836122fa565b9150612e1582612dae565b604082019050919050565b60006020820190508181036000830152612e3981612dfd565b9050919050565b7f4552433732313a207472616e7366657220746f20746865207a65726f2061646460008201527f7265737300000000000000000000000000000000000000000000000000000000602082015250565b6000612e9c6024836122fa565b9150612ea782612e40565b604082019050919050565b60006020820190508181036000830152612ecb81612e8f565b9050919050565b7f45524337323155524953746f726167653a2055524920736574206f66206e6f6e60008201527f6578697374656e7420746f6b656e000000000000000000000000000000000000602082015250565b6000612f2e602e836122fa565b9150612f3982612ed2565b604082019050919050565b60006020820190508181036000830152612f5d81612f21565b9050919050565b60008190508160005260206000209050919050565b60006020601f8301049050919050565b600082821b905092915050565b600060088302612fc67fffffffffffffffffffffffffffffffffffffffffffffffffffffffffffffffff82612f89565b612fd08683612f89565b95508019841693508086168417925050509392505050565b6000819050919050565b600061300d613008613003846123a1565b612fe8565b6123a1565b9050919050565b6000819050919050565b61302783612ff2565b61303b61303382613014565b848454612f96565b825550505050565b600090565b613050613043565b61305b81848461301e565b505050565b5b8181101561307f57613074600082613048565b600181019050613061565b5050565b601f8211156130c45761309581612f64565b61309e84612f79565b810160208510156130ad578190505b6130c16130b985612f79565b830182613060565b50505b505050565b600082821c905092915050565b60006130e7600019846008026130c9565b1980831691505092915050565b600061310083836130d6565b9150826002028217905092915050565b613119826122ef565b67ffffffffffffffff811115613132576131316125f6565b5b61313c82546129c0565b613147828285613083565b600060209050601f83116001811461317a5760008415613168578287015190505b61317285826130f4565b8655506131da565b601f19841661318886612f64565b60005b828110156131b05784890151825560018201915060208501945060208101905061318b565b868310156131cd57848901516131c9601f8916826130d6565b8355505b6001600288020188555050505b505050505050565b7f4552433732313a20617070726f766520746f2063616c6c657200000000000000600082015250565b60006132186019836122fa565b9150613223826131e2565b602082019050919050565b600060208201905081810360008301526132478161320b565b9050919050565b7f4552433732313a207472616e7366657220746f206e6f6e20455243373231526560008201527f63656976657220696d706c656d656e7465720000000000000000000000000000602082015250565b60006132aa6032836122fa565b91506132b58261324e565b604082019050919050565b600060208201905081810360008301526132d98161329d565b9050919050565b600081905092915050565b60006132f6826122ef565b61330081856132e0565b935061331081856020860161230b565b80840191505092915050565b600061332882856132eb565b915061333482846132eb565b91508190509392505050565b600061334b826123a1565b9150613356836123a1565b925082820390508181111561336e5761336d612ca5565b5b92915050565b600061337f826123a1565b915061338a836123a1565b92508282019050808211156133a2576133a1612ca5565b5b92915050565b7f416363657373436f6e74726f6c3a206163636f756e7420000000000000000000600082015250565b60006133de6017836132e0565b91506133e9826133a8565b601782019050919050565b7f206973206d697373696e6720726f6c6520000000000000000000000000000000600082015250565b600061342a6011836132e0565b9150613435826133f4565b601182019050919050565b600061344b826133d1565b915061345782856132eb565b91506134628261341d565b915061346e82846132eb565b91508190509392505050565b600081519050919050565b600082825260208201905092915050565b60006134a18261347a565b6134ab8185613485565b93506134bb81856020860161230b565b6134c481612335565b840191505092915050565b60006080820190506134e46000830187612436565b6134f16020830186612436565b6134fe6040830185612797565b81810360608301526135108184613496565b905095945050505050565b60008151905061352a81612260565b92915050565b6000602082840312156135465761354561222a565b5b60006135548482850161351b565b91505092915050565b6000613568826123a1565b9150613573836123a1565b9250828202613581816123a1565b9150828204841483151761359857613597612ca5565b5b5092915050565b7f4e487b7100000000000000000000000000000000000000000000000000000000600052603260045260246000fd5b60006135d9826123a1565b9150600082036135ec576135eb612ca5565b5b600182039050919050565b7f537472696e67733a20686578206c656e67746820696e73756666696369656e74600082015250565b600061362d6020836122fa565b9150613638826135f7565b602082019050919050565b6000602082019050818103600083015261365c81613620565b9050919050565b7f4552433732313a206d696e7420746f20746865207a65726f2061646472657373600082015250565b60006136996020836122fa565b91506136a482613663565b602082019050919050565b600060208201905081810360008301526136c88161368c565b9050919050565b7f4552433732313a20746f6b656e20616c7265616479206d696e74656400000000600082015250565b6000613705601c836122fa565b9150613710826136cf565b602082019050919050565b60006020820190508181036000830152613734816136f8565b9050919050565b7f4e487b7100000000000000000000000000000000000000000000000000000000600052601260045260246000fdfea26469706673582212206206606dc6f8317ffeaa216e9568ea3c850983ea761e25bedba2cadafc1c0e7364736f6c63430008110033",
  "linkReferences": {},
  "deployedLinkReferences": {}
}