{
  "_format": "hh-sol-artifact-1",
  "contractName": "Users",
  "sourceName": "contracts/Users.sol",
  "abi": [
    {
      "inputs": [],
      "stateMutability": "nonpayable",
      "type": "constructor"
    },
    {
      "anonymous": false,
      "inputs": [
        {
          "indexed": true,
          "internalType": "address",
          "name": "c_address",
          "type": "address"
        },
        {
          "indexed": true,
          "internalType": "uint256",
          "name": "id",
          "type": "uint256"
        },
        {
          "indexed": false,
          "internalType": "string",
          "name": "name",
          "type": "string"
        },
        {
          "indexed": false,
          "internalType": "string",
          "name": "surname",
          "type": "string"
        }
      ],
      "name": "CustomerCreated",
      "type": "event"
    },
    {
      "anonymous": false,
      "inputs": [
        {
          "indexed": true,
          "internalType": "address",
          "name": "d_address",
          "type": "address"
        },
        {
          "indexed": true,
          "internalType": "uint256",
          "name": "id",
          "type": "uint256"
        },
        {
          "indexed": false,
          "internalType": "string",
          "name": "name",
          "type": "string"
        },
        {
          "indexed": false,
          "internalType": "string",
          "name": "surname",
          "type": "string"
        },
        {
          "indexed": true,
          "internalType": "string",
          "name": "email",
          "type": "string"
        },
        {
          "indexed": false,
          "internalType": "uint256",
          "name": "ssn",
          "type": "uint256"
        }
      ],
      "name": "DesignerCreated",
      "type": "event"
    },
    {
      "anonymous": false,
      "inputs": [
        {
          "indexed": true,
          "internalType": "address",
          "name": "m_address",
          "type": "address"
        },
        {
          "indexed": true,
          "internalType": "uint256",
          "name": "id",
          "type": "uint256"
        },
        {
          "indexed": false,
          "internalType": "string",
          "name": "name",
          "type": "string"
        },
        {
          "indexed": false,
          "internalType": "string",
          "name": "email",
          "type": "string"
        },
        {
          "indexed": true,
          "internalType": "uint256",
          "name": "ssn",
          "type": "uint256"
        }
      ],
      "name": "ManufacturerCreated",
      "type": "event"
    },
    {
      "anonymous": false,
      "inputs": [
        {
          "indexed": true,
          "internalType": "bytes32",
          "name": "role",
          "type": "bytes32"
        },
        {
          "indexed": true,
          "internalType": "bytes32",
          "name": "previousAdminRole",
          "type": "bytes32"
        },
        {
          "indexed": true,
          "internalType": "bytes32",
          "name": "newAdminRole",
          "type": "bytes32"
        }
      ],
      "name": "RoleAdminChanged",
      "type": "event"
    },
    {
      "anonymous": false,
      "inputs": [
        {
          "indexed": true,
          "internalType": "bytes32",
          "name": "role",
          "type": "bytes32"
        },
        {
          "indexed": true,
          "internalType": "address",
          "name": "account",
          "type": "address"
        },
        {
          "indexed": true,
          "internalType": "address",
          "name": "sender",
          "type": "address"
        }
      ],
      "name": "RoleGranted",
      "type": "event"
    },
    {
      "anonymous": false,
      "inputs": [
        {
          "indexed": true,
          "internalType": "bytes32",
          "name": "role",
          "type": "bytes32"
        },
        {
          "indexed": true,
          "internalType": "address",
          "name": "account",
          "type": "address"
        },
        {
          "indexed": true,
          "internalType": "address",
          "name": "sender",
          "type": "address"
        }
      ],
      "name": "RoleRevoked",
      "type": "event"
    },
    {
      "inputs": [],
      "name": "CUSTOMER_ROLE",
      "outputs": [
        {
          "internalType": "bytes32",
          "name": "",
          "type": "bytes32"
        }
      ],
      "stateMutability": "view",
      "type": "function"
    },
    {
      "inputs": [],
      "name": "DEFAULT_ADMIN_ROLE",
      "outputs": [
        {
          "internalType": "bytes32",
          "name": "",
          "type": "bytes32"
        }
      ],
      "stateMutability": "view",
      "type": "function"
    },
    {
      "inputs": [],
      "name": "DESIGNER_ROLE",
      "outputs": [
        {
          "internalType": "bytes32",
          "name": "",
          "type": "bytes32"
        }
      ],
      "stateMutability": "view",
      "type": "function"
    },
    {
      "inputs": [],
      "name": "MANUFACTURER_ROLE",
      "outputs": [
        {
          "internalType": "bytes32",
          "name": "",
          "type": "bytes32"
        }
      ],
      "stateMutability": "view",
      "type": "function"
    },
    {
      "inputs": [
        {
          "internalType": "address",
          "name": "_customer",
          "type": "address"
        }
      ],
      "name": "customerLogin",
      "outputs": [
        {
          "internalType": "bool",
          "name": "",
          "type": "bool"
        }
      ],
      "stateMutability": "view",
      "type": "function"
    },
    {
      "inputs": [
        {
          "internalType": "address",
          "name": "_customer",
          "type": "address"
        }
      ],
      "name": "customerProfile",
      "outputs": [
        {
          "components": [
            {
              "internalType": "address",
              "name": "c_address",
              "type": "address"
            },
            {
              "internalType": "uint256",
              "name": "id",
              "type": "uint256"
            },
            {
              "internalType": "string",
              "name": "name",
              "type": "string"
            },
            {
              "internalType": "string",
              "name": "surname",
              "type": "string"
            },
            {
              "internalType": "uint64",
              "name": "number",
              "type": "uint64"
            }
          ],
          "internalType": "struct Users.Customer",
          "name": "",
          "type": "tuple"
        }
      ],
      "stateMutability": "view",
      "type": "function"
    },
    {
      "inputs": [
        {
          "internalType": "uint256",
          "name": "",
          "type": "uint256"
        }
      ],
      "name": "customers",
      "outputs": [
        {
          "internalType": "address",
          "name": "c_address",
          "type": "address"
        },
        {
          "internalType": "uint256",
          "name": "id",
          "type": "uint256"
        },
        {
          "internalType": "string",
          "name": "name",
          "type": "string"
        },
        {
          "internalType": "string",
          "name": "surname",
          "type": "string"
        },
        {
          "internalType": "uint64",
          "name": "number",
          "type": "uint64"
        }
      ],
      "stateMutability": "view",
      "type": "function"
    },
    {
      "inputs": [
        {
          "internalType": "address",
          "name": "_designer",
          "type": "address"
        }
      ],
      "name": "designerLogIn",
      "outputs": [
        {
          "internalType": "bool",
          "name": "",
          "type": "bool"
        }
      ],
      "stateMutability": "view",
      "type": "function"
    },
    {
      "inputs": [
        {
          "internalType": "address",
          "name": "_designer",
          "type": "address"
        }
      ],
      "name": "designerProfile",
      "outputs": [
        {
          "components": [
            {
              "internalType": "address",
              "name": "d_address",
              "type": "address"
            },
            {
              "internalType": "uint256",
              "name": "id",
              "type": "uint256"
            },
            {
              "internalType": "string",
              "name": "name",
              "type": "string"
            },
            {
              "internalType": "string",
              "name": "surname",
              "type": "string"
            },
            {
              "internalType": "uint64",
              "name": "number",
              "type": "uint64"
            },
            {
              "internalType": "string",
              "name": "email",
              "type": "string"
            },
            {
              "internalType": "uint256",
              "name": "ssn",
              "type": "uint256"
            },
            {
              "internalType": "string",
              "name": "location",
              "type": "string"
            }
          ],
          "internalType": "struct Users.Designer",
          "name": "",
          "type": "tuple"
        }
      ],
      "stateMutability": "view",
      "type": "function"
    },
    {
      "inputs": [
        {
          "internalType": "uint256",
          "name": "",
          "type": "uint256"
        }
      ],
      "name": "designers",
      "outputs": [
        {
          "internalType": "address",
          "name": "d_address",
          "type": "address"
        },
        {
          "internalType": "uint256",
          "name": "id",
          "type": "uint256"
        },
        {
          "internalType": "string",
          "name": "name",
          "type": "string"
        },
        {
          "internalType": "string",
          "name": "surname",
          "type": "string"
        },
        {
          "internalType": "uint64",
          "name": "number",
          "type": "uint64"
        },
        {
          "internalType": "string",
          "name": "email",
          "type": "string"
        },
        {
          "internalType": "uint256",
          "name": "ssn",
          "type": "uint256"
        },
        {
          "internalType": "string",
          "name": "location",
          "type": "string"
        }
      ],
      "stateMutability": "view",
      "type": "function"
    },
    {
      "inputs": [
        {
          "internalType": "bytes32",
          "name": "role",
          "type": "bytes32"
        }
      ],
      "name": "getRoleAdmin",
      "outputs": [
        {
          "internalType": "bytes32",
          "name": "",
          "type": "bytes32"
        }
      ],
      "stateMutability": "view",
      "type": "function"
    },
    {
      "inputs": [
        {
          "internalType": "address",
          "name": "_designer",
          "type": "address"
        }
      ],
      "name": "giveDesignerRole",
      "outputs": [],
      "stateMutability": "nonpayable",
      "type": "function"
    },
    {
      "inputs": [
        {
          "internalType": "address",
          "name": "_manufacturer",
          "type": "address"
        }
      ],
      "name": "giveManufacturerRole",
      "outputs": [],
      "stateMutability": "nonpayable",
      "type": "function"
    },
    {
      "inputs": [
        {
          "internalType": "bytes32",
          "name": "role",
          "type": "bytes32"
        },
        {
          "internalType": "address",
          "name": "account",
          "type": "address"
        }
      ],
      "name": "grantRole",
      "outputs": [],
      "stateMutability": "nonpayable",
      "type": "function"
    },
    {
      "inputs": [
        {
          "internalType": "bytes32",
          "name": "role",
          "type": "bytes32"
        },
        {
          "internalType": "address",
          "name": "account",
          "type": "address"
        }
      ],
      "name": "hasRole",
      "outputs": [
        {
          "internalType": "bool",
          "name": "",
          "type": "bool"
        }
      ],
      "stateMutability": "view",
      "type": "function"
    },
    {
      "inputs": [
        {
          "internalType": "address",
          "name": "_customer",
          "type": "address"
        },
        {
          "internalType": "string",
          "name": "_name",
          "type": "string"
        },
        {
          "internalType": "string",
          "name": "_surname",
          "type": "string"
        },
        {
          "internalType": "uint64",
          "name": "_number",
          "type": "uint64"
        }
      ],
      "name": "makeCustomer",
      "outputs": [],
      "stateMutability": "nonpayable",
      "type": "function"
    },
    {
      "inputs": [
        {
          "internalType": "address",
          "name": "_designer",
          "type": "address"
        },
        {
          "internalType": "string",
          "name": "_name",
          "type": "string"
        },
        {
          "internalType": "string",
          "name": "_surname",
          "type": "string"
        },
        {
          "internalType": "uint64",
          "name": "_number",
          "type": "uint64"
        },
        {
          "internalType": "string",
          "name": "_email",
          "type": "string"
        },
        {
          "internalType": "uint256",
          "name": "_ssn",
          "type": "uint256"
        },
        {
          "internalType": "string",
          "name": "_location",
          "type": "string"
        }
      ],
      "name": "makeDesigner",
      "outputs": [],
      "stateMutability": "nonpayable",
      "type": "function"
    },
    {
      "inputs": [
        {
          "internalType": "address",
          "name": "_manufacturer",
          "type": "address"
        },
        {
          "internalType": "string",
          "name": "_name",
          "type": "string"
        },
        {
          "internalType": "string",
          "name": "_surname",
          "type": "string"
        },
        {
          "internalType": "uint64",
          "name": "_number",
          "type": "uint64"
        },
        {
          "internalType": "string",
          "name": "_email",
          "type": "string"
        },
        {
          "internalType": "uint256",
          "name": "_ssn",
          "type": "uint256"
        },
        {
          "internalType": "string",
          "name": "_location",
          "type": "string"
        }
      ],
      "name": "makeManufacturer",
      "outputs": [],
      "stateMutability": "nonpayable",
      "type": "function"
    },
    {
      "inputs": [
        {
          "internalType": "address",
          "name": "_manufacturer",
          "type": "address"
        }
      ],
      "name": "manufacturerLogIn",
      "outputs": [
        {
          "internalType": "bool",
          "name": "",
          "type": "bool"
        }
      ],
      "stateMutability": "view",
      "type": "function"
    },
    {
      "inputs": [
        {
          "internalType": "address",
          "name": "_manufacturer",
          "type": "address"
        }
      ],
      "name": "manufacturerProfile",
      "outputs": [
        {
          "components": [
            {
              "internalType": "address",
              "name": "m_address",
              "type": "address"
            },
            {
              "internalType": "uint256",
              "name": "id",
              "type": "uint256"
            },
            {
              "internalType": "string",
              "name": "name",
              "type": "string"
            },
            {
              "internalType": "string",
              "name": "surname",
              "type": "string"
            },
            {
              "internalType": "uint64",
              "name": "number",
              "type": "uint64"
            },
            {
              "internalType": "string",
              "name": "email",
              "type": "string"
            },
            {
              "internalType": "uint256",
              "name": "ssn",
              "type": "uint256"
            },
            {
              "internalType": "string",
              "name": "location",
              "type": "string"
            }
          ],
          "internalType": "struct Users.Manufacturer",
          "name": "",
          "type": "tuple"
        }
      ],
      "stateMutability": "view",
      "type": "function"
    },
    {
      "inputs": [
        {
          "internalType": "uint256",
          "name": "",
          "type": "uint256"
        }
      ],
      "name": "manufacturers",
      "outputs": [
        {
          "internalType": "address",
          "name": "m_address",
          "type": "address"
        },
        {
          "internalType": "uint256",
          "name": "id",
          "type": "uint256"
        },
        {
          "internalType": "string",
          "name": "name",
          "type": "string"
        },
        {
          "internalType": "string",
          "name": "surname",
          "type": "string"
        },
        {
          "internalType": "uint64",
          "name": "number",
          "type": "uint64"
        },
        {
          "internalType": "string",
          "name": "email",
          "type": "string"
        },
        {
          "internalType": "uint256",
          "name": "ssn",
          "type": "uint256"
        },
        {
          "internalType": "string",
          "name": "location",
          "type": "string"
        }
      ],
      "stateMutability": "view",
      "type": "function"
    },
    {
      "inputs": [
        {
          "internalType": "bytes32",
          "name": "role",
          "type": "bytes32"
        },
        {
          "internalType": "address",
          "name": "account",
          "type": "address"
        }
      ],
      "name": "renounceRole",
      "outputs": [],
      "stateMutability": "nonpayable",
      "type": "function"
    },
    {
      "inputs": [
        {
          "internalType": "bytes32",
          "name": "role",
          "type": "bytes32"
        },
        {
          "internalType": "address",
          "name": "account",
          "type": "address"
        }
      ],
      "name": "revokeRole",
      "outputs": [],
      "stateMutability": "nonpayable",
      "type": "function"
    },
    {
      "inputs": [],
      "name": "s_c_id",
      "outputs": [
        {
          "internalType": "uint256",
          "name": "",
          "type": "uint256"
        }
      ],
      "stateMutability": "view",
      "type": "function"
    },
    {
      "inputs": [],
      "name": "s_d_id",
      "outputs": [
        {
          "internalType": "uint256",
          "name": "",
          "type": "uint256"
        }
      ],
      "stateMutability": "view",
      "type": "function"
    },
    {
      "inputs": [],
      "name": "s_m_id",
      "outputs": [
        {
          "internalType": "uint256",
          "name": "",
          "type": "uint256"
        }
      ],
      "stateMutability": "view",
      "type": "function"
    },
    {
      "inputs": [
        {
          "internalType": "bytes4",
          "name": "interfaceId",
          "type": "bytes4"
        }
      ],
      "name": "supportsInterface",
      "outputs": [
        {
          "internalType": "bool",
          "name": "",
          "type": "bool"
        }
      ],
      "stateMutability": "view",
      "type": "function"
    }
  ],
  "bytecode": "0x60806040526000600155600060025560006003553480156200002057600080fd5b50620000366000801b336200003c60201b60201c565b620001b5565b6200004e82826200005260201b60201c565b5050565b6200006482826200014360201b60201c565b6200013f57600160008084815260200190815260200160002060000160008373ffffffffffffffffffffffffffffffffffffffff1673ffffffffffffffffffffffffffffffffffffffff16815260200190815260200160002060006101000a81548160ff021916908315150217905550620000e4620001ad60201b60201c565b73ffffffffffffffffffffffffffffffffffffffff168173ffffffffffffffffffffffffffffffffffffffff16837f2f8788117e7eff1d82e926ec794901d17c78024a50270940304540a733656f0d60405160405180910390a45b5050565b600080600084815260200190815260200160002060000160008373ffffffffffffffffffffffffffffffffffffffff1673ffffffffffffffffffffffffffffffffffffffff16815260200190815260200160002060009054906101000a900460ff16905092915050565b600033905090565b61377e80620001c56000396000f3fe608060405234801561001057600080fd5b50600436106101a95760003560e01c806391d14854116100f9578063d940353011610097578063e6f5643d11610071578063e6f5643d1461052c578063e6fd98741461055c578063eac82f4714610578578063fc2e309014610594576101a9565b8063d9403530146104ae578063dbc37996146104de578063df064ad81461050e576101a9565b8063a217fddf116100d3578063a217fddf14610422578063c0abda2a14610440578063d547741f14610474578063d68c5e1114610490576101a9565b806391d14854146103a4578063965288b0146103d45780639d9c402c146103f2576101a9565b8063429211d41161016657806377a17bc01161014057806377a17bc0146103035780637b27c22e1461033357806385f0f3c91461035157806390175af11461036d576101a9565b8063429211d41461029457806360c2e2d7146102cb5780636f0a4bf2146102e7576101a9565b806301ffc9a7146101ae57806319f1638a146101de578063204d79231461020e578063248a9ca31461022c5780632f2ff15d1461025c57806336568abe14610278575b600080fd5b6101c860048036038101906101c39190612669565b6105b2565b6040516101d591906126b1565b60405180910390f35b6101f860048036038101906101f3919061272a565b61062c565b60405161020591906126b1565b60405180910390f35b6102166106ce565b6040516102239190612770565b60405180910390f35b610246600480360381019061024191906127b7565b6106f2565b6040516102539190612770565b60405180910390f35b610276600480360381019061027191906127e4565b610711565b005b610292600480360381019061028d91906127e4565b610732565b005b6102ae60048036038101906102a9919061285a565b6107b5565b6040516102c2989796959493929190612958565b60405180910390f35b6102e560048036038101906102e0919061272a565b610a51565b005b61030160048036038101906102fc9190612b53565b610aa8565b005b61031d6004803603810190610318919061272a565b610c4a565b60405161032a91906126b1565b60405180910390f35b61033b610c8e565b6040516103489190612bf2565b60405180910390f35b61036b60048036038101906103669190612c0d565b610c94565b005b6103876004803603810190610382919061285a565b610e70565b60405161039b989796959493929190612958565b60405180910390f35b6103be60048036038101906103b991906127e4565b61110c565b6040516103cb91906126b1565b60405180910390f35b6103dc611176565b6040516103e99190612770565b60405180910390f35b61040c6004803603810190610407919061272a565b61119a565b6040516104199190612e13565b60405180910390f35b61042a611417565b6040516104379190612770565b60405180910390f35b61045a6004803603810190610455919061285a565b61141e565b60405161046b959493929190612e35565b60405180910390f35b61048e600480360381019061048991906127e4565b611598565b005b6104986115b9565b6040516104a59190612bf2565b60405180910390f35b6104c860048036038101906104c3919061272a565b6115bf565b6040516104d59190612f5b565b60405180910390f35b6104f860048036038101906104f3919061272a565b61196b565b6040516105059190613042565b60405180910390f35b610516611d17565b6040516105239190612770565b60405180910390f35b6105466004803603810190610541919061272a565b611d3b565b60405161055391906126b1565b60405180910390f35b6105766004803603810190610571919061272a565b611d7f565b005b610592600480360381019061058d9190612c0d565b611dd6565b005b61059c611f9b565b6040516105a99190612bf2565b60405180910390f35b60007f7965db0b000000000000000000000000000000000000000000000000000000007bffffffffffffffffffffffffffffffffffffffffffffffffffffffff1916827bffffffffffffffffffffffffffffffffffffffffffffffffffffffff19161480610625575061062482611fa1565b5b9050919050565b600080600190505b60025481116106c3578273ffffffffffffffffffffffffffffffffffffffff166004600083815260200190815260200160002060000160009054906101000a900473ffffffffffffffffffffffffffffffffffffffff1673ffffffffffffffffffffffffffffffffffffffff16036106b05760019150506106c9565b80806106bb90613093565b915050610634565b50600090505b919050565b7f288a15c4a15d470e4cd9cad2f113b91206b520c26dbd3dd74627f0c057baa19c81565b6000806000838152602001908152602001600020600101549050919050565b61071a826106f2565b6107238161200b565b61072d838361201f565b505050565b61073a6120ff565b73ffffffffffffffffffffffffffffffffffffffff168173ffffffffffffffffffffffffffffffffffffffff16146107a7576040517f08c379a000000000000000000000000000000000000000000000000000000000815260040161079e9061314d565b60405180910390fd5b6107b18282612107565b5050565b60056020528060005260406000206000915090508060000160009054906101000a900473ffffffffffffffffffffffffffffffffffffffff16908060010154908060020180546108049061319c565b80601f01602080910402602001604051908101604052809291908181526020018280546108309061319c565b801561087d5780601f106108525761010080835404028352916020019161087d565b820191906000526020600020905b81548152906001019060200180831161086057829003601f168201915b5050505050908060030180546108929061319c565b80601f01602080910402602001604051908101604052809291908181526020018280546108be9061319c565b801561090b5780601f106108e05761010080835404028352916020019161090b565b820191906000526020600020905b8154815290600101906020018083116108ee57829003601f168201915b5050505050908060040160009054906101000a900467ffffffffffffffff169080600501805461093a9061319c565b80601f01602080910402602001604051908101604052809291908181526020018280546109669061319c565b80156109b35780601f10610988576101008083540402835291602001916109b3565b820191906000526020600020905b81548152906001019060200180831161099657829003601f168201915b5050505050908060060154908060070180546109ce9061319c565b80601f01602080910402602001604051908101604052809291908181526020018280546109fa9061319c565b8015610a475780601f10610a1c57610100808354040283529160200191610a47565b820191906000526020600020905b815481529060010190602001808311610a2a57829003601f168201915b5050505050905088565b610a7b7f22c69ab406805e70d07fb1a6502af760601d3b977beadb295a9d76d5852e16a382610711565b610aa57f288a15c4a15d470e4cd9cad2f113b91206b520c26dbd3dd74627f0c057baa19c82610711565b50565b610ad27f288a15c4a15d470e4cd9cad2f113b91206b520c26dbd3dd74627f0c057baa19c856121e8565b6040518060a001604052808573ffffffffffffffffffffffffffffffffffffffff16815260200160015481526020018481526020018381526020018267ffffffffffffffff1681525060046000600160008154610b2e90613093565b919050819055815260200190815260200160002060008201518160000160006101000a81548173ffffffffffffffffffffffffffffffffffffffff021916908373ffffffffffffffffffffffffffffffffffffffff160217905550602082015181600101556040820151816002019081610ba89190613379565b506060820151816003019081610bbe9190613379565b5060808201518160040160006101000a81548167ffffffffffffffff021916908367ffffffffffffffff1602179055509050506001548473ffffffffffffffffffffffffffffffffffffffff167f85eed599a805f3df42798f4a50e4c1f02121ef1e89574c33c12780546a5dca888585604051610c3c92919061344b565b60405180910390a350505050565b6000610c767feefb95e842a3287179d933b4460be539a1d5af11aa8b325bb45c5c8dc92de4ed8361110c565b15610c845760019050610c89565b600090505b919050565b60025481565b6040518061010001604052808873ffffffffffffffffffffffffffffffffffffffff16815260200160025481526020018781526020018681526020018567ffffffffffffffff1681526020018481526020018381526020018281525060056000600260008154610d0390613093565b919050819055815260200190815260200160002060008201518160000160006101000a81548173ffffffffffffffffffffffffffffffffffffffff021916908373ffffffffffffffffffffffffffffffffffffffff160217905550602082015181600101556040820151816002019081610d7d9190613379565b506060820151816003019081610d939190613379565b5060808201518160040160006101000a81548167ffffffffffffffff021916908367ffffffffffffffff16021790555060a0820151816005019081610dd89190613379565b5060c0820151816006015560e0820151816007019081610df89190613379565b5090505082604051610e0a91906134be565b60405180910390206002548873ffffffffffffffffffffffffffffffffffffffff167f04a6ea88fbc8bfa42ae301df6427da4e592c03d2c604a0fd8c196d22f1990713898987604051610e5f939291906134d5565b60405180910390a450505050505050565b60066020528060005260406000206000915090508060000160009054906101000a900473ffffffffffffffffffffffffffffffffffffffff1690806001015490806002018054610ebf9061319c565b80601f0160208091040260200160405190810160405280929190818152602001828054610eeb9061319c565b8015610f385780601f10610f0d57610100808354040283529160200191610f38565b820191906000526020600020905b815481529060010190602001808311610f1b57829003601f168201915b505050505090806003018054610f4d9061319c565b80601f0160208091040260200160405190810160405280929190818152602001828054610f799061319c565b8015610fc65780601f10610f9b57610100808354040283529160200191610fc6565b820191906000526020600020905b815481529060010190602001808311610fa957829003601f168201915b5050505050908060040160009054906101000a900467ffffffffffffffff1690806005018054610ff59061319c565b80601f01602080910402602001604051908101604052809291908181526020018280546110219061319c565b801561106e5780601f106110435761010080835404028352916020019161106e565b820191906000526020600020905b81548152906001019060200180831161105157829003601f168201915b5050505050908060060154908060070180546110899061319c565b80601f01602080910402602001604051908101604052809291908181526020018280546110b59061319c565b80156111025780601f106110d757610100808354040283529160200191611102565b820191906000526020600020905b8154815290600101906020018083116110e557829003601f168201915b5050505050905088565b600080600084815260200190815260200160002060000160008373ffffffffffffffffffffffffffffffffffffffff1673ffffffffffffffffffffffffffffffffffffffff16815260200190815260200160002060009054906101000a900460ff16905092915050565b7feefb95e842a3287179d933b4460be539a1d5af11aa8b325bb45c5c8dc92de4ed81565b6111a26124e4565b6111aa6124e4565b6000600190505b600154811161140d578373ffffffffffffffffffffffffffffffffffffffff166004600083815260200190815260200160002060000160009054906101000a900473ffffffffffffffffffffffffffffffffffffffff1673ffffffffffffffffffffffffffffffffffffffff16036113fa57600460008281526020019081526020016000206040518060a00160405290816000820160009054906101000a900473ffffffffffffffffffffffffffffffffffffffff1673ffffffffffffffffffffffffffffffffffffffff1673ffffffffffffffffffffffffffffffffffffffff168152602001600182015481526020016002820180546112b19061319c565b80601f01602080910402602001604051908101604052809291908181526020018280546112dd9061319c565b801561132a5780601f106112ff5761010080835404028352916020019161132a565b820191906000526020600020905b81548152906001019060200180831161130d57829003601f168201915b505050505081526020016003820180546113439061319c565b80601f016020809104026020016040519081016040528092919081815260200182805461136f9061319c565b80156113bc5780601f10611391576101008083540402835291602001916113bc565b820191906000526020600020905b81548152906001019060200180831161139f57829003601f168201915b505050505081526020016004820160009054906101000a900467ffffffffffffffff1667ffffffffffffffff1667ffffffffffffffff168152505091505b808061140590613093565b9150506111b1565b5080915050919050565b6000801b81565b60046020528060005260406000206000915090508060000160009054906101000a900473ffffffffffffffffffffffffffffffffffffffff169080600101549080600201805461146d9061319c565b80601f01602080910402602001604051908101604052809291908181526020018280546114999061319c565b80156114e65780601f106114bb576101008083540402835291602001916114e6565b820191906000526020600020905b8154815290600101906020018083116114c957829003601f168201915b5050505050908060030180546114fb9061319c565b80601f01602080910402602001604051908101604052809291908181526020018280546115279061319c565b80156115745780601f1061154957610100808354040283529160200191611574565b820191906000526020600020905b81548152906001019060200180831161155757829003601f168201915b5050505050908060040160009054906101000a900467ffffffffffffffff16905085565b6115a1826106f2565b6115aa8161200b565b6115b48383612107565b505050565b60035481565b6115c7612533565b6115cf612533565b6000600190505b6003548111611961578373ffffffffffffffffffffffffffffffffffffffff166006600083815260200190815260200160002060000160009054906101000a900473ffffffffffffffffffffffffffffffffffffffff1673ffffffffffffffffffffffffffffffffffffffff160361194e5760066000828152602001908152602001600020604051806101000160405290816000820160009054906101000a900473ffffffffffffffffffffffffffffffffffffffff1673ffffffffffffffffffffffffffffffffffffffff1673ffffffffffffffffffffffffffffffffffffffff168152602001600182015481526020016002820180546116d79061319c565b80601f01602080910402602001604051908101604052809291908181526020018280546117039061319c565b80156117505780601f1061172557610100808354040283529160200191611750565b820191906000526020600020905b81548152906001019060200180831161173357829003601f168201915b505050505081526020016003820180546117699061319c565b80601f01602080910402602001604051908101604052809291908181526020018280546117959061319c565b80156117e25780601f106117b7576101008083540402835291602001916117e2565b820191906000526020600020905b8154815290600101906020018083116117c557829003601f168201915b505050505081526020016004820160009054906101000a900467ffffffffffffffff1667ffffffffffffffff1667ffffffffffffffff16815260200160058201805461182d9061319c565b80601f01602080910402602001604051908101604052809291908181526020018280546118599061319c565b80156118a65780601f1061187b576101008083540402835291602001916118a6565b820191906000526020600020905b81548152906001019060200180831161188957829003601f168201915b50505050508152602001600682015481526020016007820180546118c99061319c565b80601f01602080910402602001604051908101604052809291908181526020018280546118f59061319c565b80156119425780601f1061191757610100808354040283529160200191611942565b820191906000526020600020905b81548152906001019060200180831161192557829003601f168201915b50505050508152505091505b808061195990613093565b9150506115d6565b5080915050919050565b611973612598565b61197b612598565b6000600190505b6002548111611d0d578373ffffffffffffffffffffffffffffffffffffffff166005600083815260200190815260200160002060000160009054906101000a900473ffffffffffffffffffffffffffffffffffffffff1673ffffffffffffffffffffffffffffffffffffffff1603611cfa5760056000828152602001908152602001600020604051806101000160405290816000820160009054906101000a900473ffffffffffffffffffffffffffffffffffffffff1673ffffffffffffffffffffffffffffffffffffffff1673ffffffffffffffffffffffffffffffffffffffff16815260200160018201548152602001600282018054611a839061319c565b80601f0160208091040260200160405190810160405280929190818152602001828054611aaf9061319c565b8015611afc5780601f10611ad157610100808354040283529160200191611afc565b820191906000526020600020905b815481529060010190602001808311611adf57829003601f168201915b50505050508152602001600382018054611b159061319c565b80601f0160208091040260200160405190810160405280929190818152602001828054611b419061319c565b8015611b8e5780601f10611b6357610100808354040283529160200191611b8e565b820191906000526020600020905b815481529060010190602001808311611b7157829003601f168201915b505050505081526020016004820160009054906101000a900467ffffffffffffffff1667ffffffffffffffff1667ffffffffffffffff168152602001600582018054611bd99061319c565b80601f0160208091040260200160405190810160405280929190818152602001828054611c059061319c565b8015611c525780601f10611c2757610100808354040283529160200191611c52565b820191906000526020600020905b815481529060010190602001808311611c3557829003601f168201915b5050505050815260200160068201548152602001600782018054611c759061319c565b80601f0160208091040260200160405190810160405280929190818152602001828054611ca19061319c565b8015611cee5780601f10611cc357610100808354040283529160200191611cee565b820191906000526020600020905b815481529060010190602001808311611cd157829003601f168201915b50505050508152505091505b8080611d0590613093565b915050611982565b5080915050919050565b7f22c69ab406805e70d07fb1a6502af760601d3b977beadb295a9d76d5852e16a381565b6000611d677f22c69ab406805e70d07fb1a6502af760601d3b977beadb295a9d76d5852e16a38361110c565b15611d755760019050611d7a565b600090505b919050565b611da97feefb95e842a3287179d933b4460be539a1d5af11aa8b325bb45c5c8dc92de4ed82610711565b611dd37f288a15c4a15d470e4cd9cad2f113b91206b520c26dbd3dd74627f0c057baa19c82610711565b50565b6040518061010001604052808873ffffffffffffffffffffffffffffffffffffffff16815260200160035481526020018781526020018681526020018567ffffffffffffffff1681526020018481526020018381526020018281525060066000600360008154611e4590613093565b919050819055815260200190815260200160002060008201518160000160006101000a81548173ffffffffffffffffffffffffffffffffffffffff021916908373ffffffffffffffffffffffffffffffffffffffff160217905550602082015181600101556040820151816002019081611ebf9190613379565b506060820151816003019081611ed59190613379565b5060808201518160040160006101000a81548167ffffffffffffffff021916908367ffffffffffffffff16021790555060a0820151816005019081611f1a9190613379565b5060c0820151816006015560e0820151816007019081611f3a9190613379565b50905050816003548873ffffffffffffffffffffffffffffffffffffffff167fbf9971c571d2c0e80ed565aa69e0983a8888a2cacfb74bd03fa4f07b3d5e8f888987604051611f8a92919061344b565b60405180910390a450505050505050565b60015481565b60007f01ffc9a7000000000000000000000000000000000000000000000000000000007bffffffffffffffffffffffffffffffffffffffffffffffffffffffff1916827bffffffffffffffffffffffffffffffffffffffffffffffffffffffff1916149050919050565b61201c816120176120ff565b6121f6565b50565b612029828261110c565b6120fb57600160008084815260200190815260200160002060000160008373ffffffffffffffffffffffffffffffffffffffff1673ffffffffffffffffffffffffffffffffffffffff16815260200190815260200160002060006101000a81548160ff0219169083151502179055506120a06120ff565b73ffffffffffffffffffffffffffffffffffffffff168173ffffffffffffffffffffffffffffffffffffffff16837f2f8788117e7eff1d82e926ec794901d17c78024a50270940304540a733656f0d60405160405180910390a45b5050565b600033905090565b612111828261110c565b156121e457600080600084815260200190815260200160002060000160008373ffffffffffffffffffffffffffffffffffffffff1673ffffffffffffffffffffffffffffffffffffffff16815260200190815260200160002060006101000a81548160ff0219169083151502179055506121896120ff565b73ffffffffffffffffffffffffffffffffffffffff168173ffffffffffffffffffffffffffffffffffffffff16837ff6391f5c32d9c69d2a47ea670b442974b53935d1edc7fd64eb21e047a839171b60405160405180910390a45b5050565b6121f2828261201f565b5050565b612200828261110c565b6122775761220d8161227b565b61221b8360001c60206122a8565b60405160200161222c9291906135b2565b6040516020818303038152906040526040517f08c379a000000000000000000000000000000000000000000000000000000000815260040161226e91906135ec565b60405180910390fd5b5050565b60606122a18273ffffffffffffffffffffffffffffffffffffffff16601460ff166122a8565b9050919050565b6060600060028360026122bb919061360e565b6122c59190613650565b67ffffffffffffffff8111156122de576122dd6129fc565b5b6040519080825280601f01601f1916602001820160405280156123105781602001600182028036833780820191505090505b5090507f30000000000000000000000000000000000000000000000000000000000000008160008151811061234857612347613684565b5b60200101907effffffffffffffffffffffffffffffffffffffffffffffffffffffffffffff1916908160001a9053507f7800000000000000000000000000000000000000000000000000000000000000816001815181106123ac576123ab613684565b5b60200101907effffffffffffffffffffffffffffffffffffffffffffffffffffffffffffff1916908160001a905350600060018460026123ec919061360e565b6123f69190613650565b90505b6001811115612496577f3031323334353637383961626364656600000000000000000000000000000000600f86166010811061243857612437613684565b5b1a60f81b82828151811061244f5761244e613684565b5b60200101907effffffffffffffffffffffffffffffffffffffffffffffffffffffffffffff1916908160001a905350600485901c94508061248f906136b3565b90506123f9565b50600084146124da576040517f08c379a00000000000000000000000000000000000000000000000000000000081526004016124d190613728565b60405180910390fd5b8091505092915050565b6040518060a00160405280600073ffffffffffffffffffffffffffffffffffffffff168152602001600081526020016060815260200160608152602001600067ffffffffffffffff1681525090565b604051806101000160405280600073ffffffffffffffffffffffffffffffffffffffff168152602001600081526020016060815260200160608152602001600067ffffffffffffffff1681526020016060815260200160008152602001606081525090565b604051806101000160405280600073ffffffffffffffffffffffffffffffffffffffff168152602001600081526020016060815260200160608152602001600067ffffffffffffffff1681526020016060815260200160008152602001606081525090565b6000604051905090565b600080fd5b600080fd5b60007fffffffff0000000000000000000000000000000000000000000000000000000082169050919050565b61264681612611565b811461265157600080fd5b50565b6000813590506126638161263d565b92915050565b60006020828403121561267f5761267e612607565b5b600061268d84828501612654565b91505092915050565b60008115159050919050565b6126ab81612696565b82525050565b60006020820190506126c660008301846126a2565b92915050565b600073ffffffffffffffffffffffffffffffffffffffff82169050919050565b60006126f7826126cc565b9050919050565b612707816126ec565b811461271257600080fd5b50565b600081359050612724816126fe565b92915050565b6000602082840312156127405761273f612607565b5b600061274e84828501612715565b91505092915050565b6000819050919050565b61276a81612757565b82525050565b60006020820190506127856000830184612761565b92915050565b61279481612757565b811461279f57600080fd5b50565b6000813590506127b18161278b565b92915050565b6000602082840312156127cd576127cc612607565b5b60006127db848285016127a2565b91505092915050565b600080604083850312156127fb576127fa612607565b5b6000612809858286016127a2565b925050602061281a85828601612715565b9150509250929050565b6000819050919050565b61283781612824565b811461284257600080fd5b50565b6000813590506128548161282e565b92915050565b6000602082840312156128705761286f612607565b5b600061287e84828501612845565b91505092915050565b612890816126ec565b82525050565b61289f81612824565b82525050565b600081519050919050565b600082825260208201905092915050565b60005b838110156128df5780820151818401526020810190506128c4565b60008484015250505050565b6000601f19601f8301169050919050565b6000612907826128a5565b61291181856128b0565b93506129218185602086016128c1565b61292a816128eb565b840191505092915050565b600067ffffffffffffffff82169050919050565b61295281612935565b82525050565b60006101008201905061296e600083018b612887565b61297b602083018a612896565b818103604083015261298d81896128fc565b905081810360608301526129a181886128fc565b90506129b06080830187612949565b81810360a08301526129c281866128fc565b90506129d160c0830185612896565b81810360e08301526129e381846128fc565b90509998505050505050505050565b600080fd5b600080fd5b7f4e487b7100000000000000000000000000000000000000000000000000000000600052604160045260246000fd5b612a34826128eb565b810181811067ffffffffffffffff82111715612a5357612a526129fc565b5b80604052505050565b6000612a666125fd565b9050612a728282612a2b565b919050565b600067ffffffffffffffff821115612a9257612a916129fc565b5b612a9b826128eb565b9050602081019050919050565b82818337600083830152505050565b6000612aca612ac584612a77565b612a5c565b905082815260208101848484011115612ae657612ae56129f7565b5b612af1848285612aa8565b509392505050565b600082601f830112612b0e57612b0d6129f2565b5b8135612b1e848260208601612ab7565b91505092915050565b612b3081612935565b8114612b3b57600080fd5b50565b600081359050612b4d81612b27565b92915050565b60008060008060808587031215612b6d57612b6c612607565b5b6000612b7b87828801612715565b945050602085013567ffffffffffffffff811115612b9c57612b9b61260c565b5b612ba887828801612af9565b935050604085013567ffffffffffffffff811115612bc957612bc861260c565b5b612bd587828801612af9565b9250506060612be687828801612b3e565b91505092959194509250565b6000602082019050612c076000830184612896565b92915050565b600080600080600080600060e0888a031215612c2c57612c2b612607565b5b6000612c3a8a828b01612715565b975050602088013567ffffffffffffffff811115612c5b57612c5a61260c565b5b612c678a828b01612af9565b965050604088013567ffffffffffffffff811115612c8857612c8761260c565b5b612c948a828b01612af9565b9550506060612ca58a828b01612b3e565b945050608088013567ffffffffffffffff811115612cc657612cc561260c565b5b612cd28a828b01612af9565b93505060a0612ce38a828b01612845565b92505060c088013567ffffffffffffffff811115612d0457612d0361260c565b5b612d108a828b01612af9565b91505092959891949750929550565b612d28816126ec565b82525050565b612d3781612824565b82525050565b600082825260208201905092915050565b6000612d59826128a5565b612d638185612d3d565b9350612d738185602086016128c1565b612d7c816128eb565b840191505092915050565b612d9081612935565b82525050565b600060a083016000830151612dae6000860182612d1f565b506020830151612dc16020860182612d2e565b5060408301518482036040860152612dd98282612d4e565b91505060608301518482036060860152612df38282612d4e565b9150506080830151612e086080860182612d87565b508091505092915050565b60006020820190508181036000830152612e2d8184612d96565b905092915050565b600060a082019050612e4a6000830188612887565b612e576020830187612896565b8181036040830152612e6981866128fc565b90508181036060830152612e7d81856128fc565b9050612e8c6080830184612949565b9695505050505050565b600061010083016000830151612eaf6000860182612d1f565b506020830151612ec26020860182612d2e565b5060408301518482036040860152612eda8282612d4e565b91505060608301518482036060860152612ef48282612d4e565b9150506080830151612f096080860182612d87565b5060a083015184820360a0860152612f218282612d4e565b91505060c0830151612f3660c0860182612d2e565b5060e083015184820360e0860152612f4e8282612d4e565b9150508091505092915050565b60006020820190508181036000830152612f758184612e96565b905092915050565b600061010083016000830151612f966000860182612d1f565b506020830151612fa96020860182612d2e565b5060408301518482036040860152612fc18282612d4e565b91505060608301518482036060860152612fdb8282612d4e565b9150506080830151612ff06080860182612d87565b5060a083015184820360a08601526130088282612d4e565b91505060c083015161301d60c0860182612d2e565b5060e083015184820360e08601526130358282612d4e565b9150508091505092915050565b6000602082019050818103600083015261305c8184612f7d565b905092915050565b7f4e487b7100000000000000000000000000000000000000000000000000000000600052601160045260246000fd5b600061309e82612824565b91507fffffffffffffffffffffffffffffffffffffffffffffffffffffffffffffffff82036130d0576130cf613064565b5b600182019050919050565b7f416363657373436f6e74726f6c3a2063616e206f6e6c792072656e6f756e636560008201527f20726f6c657320666f722073656c660000000000000000000000000000000000602082015250565b6000613137602f836128b0565b9150613142826130db565b604082019050919050565b600060208201905081810360008301526131668161312a565b9050919050565b7f4e487b7100000000000000000000000000000000000000000000000000000000600052602260045260246000fd5b600060028204905060018216806131b457607f821691505b6020821081036131c7576131c661316d565b5b50919050565b60008190508160005260206000209050919050565b60006020601f8301049050919050565b600082821b905092915050565b60006008830261322f7fffffffffffffffffffffffffffffffffffffffffffffffffffffffffffffffff826131f2565b61323986836131f2565b95508019841693508086168417925050509392505050565b6000819050919050565b600061327661327161326c84612824565b613251565b612824565b9050919050565b6000819050919050565b6132908361325b565b6132a461329c8261327d565b8484546131ff565b825550505050565b600090565b6132b96132ac565b6132c4818484613287565b505050565b5b818110156132e8576132dd6000826132b1565b6001810190506132ca565b5050565b601f82111561332d576132fe816131cd565b613307846131e2565b81016020851015613316578190505b61332a613322856131e2565b8301826132c9565b50505b505050565b600082821c905092915050565b600061335060001984600802613332565b1980831691505092915050565b6000613369838361333f565b9150826002028217905092915050565b613382826128a5565b67ffffffffffffffff81111561339b5761339a6129fc565b5b6133a5825461319c565b6133b08282856132ec565b600060209050601f8311600181146133e357600084156133d1578287015190505b6133db858261335d565b865550613443565b601f1984166133f1866131cd565b60005b82811015613419578489015182556001820191506020850194506020810190506133f4565b868310156134365784890151613432601f89168261333f565b8355505b6001600288020188555050505b505050505050565b6000604082019050818103600083015261346581856128fc565b9050818103602083015261347981846128fc565b90509392505050565b600081905092915050565b6000613498826128a5565b6134a28185613482565b93506134b28185602086016128c1565b80840191505092915050565b60006134ca828461348d565b915081905092915050565b600060608201905081810360008301526134ef81866128fc565b9050818103602083015261350381856128fc565b90506135126040830184612896565b949350505050565b7f416363657373436f6e74726f6c3a206163636f756e7420000000000000000000600082015250565b6000613550601783613482565b915061355b8261351a565b601782019050919050565b7f206973206d697373696e6720726f6c6520000000000000000000000000000000600082015250565b600061359c601183613482565b91506135a782613566565b601182019050919050565b60006135bd82613543565b91506135c9828561348d565b91506135d48261358f565b91506135e0828461348d565b91508190509392505050565b6000602082019050818103600083015261360681846128fc565b905092915050565b600061361982612824565b915061362483612824565b925082820261363281612824565b9150828204841483151761364957613648613064565b5b5092915050565b600061365b82612824565b915061366683612824565b925082820190508082111561367e5761367d613064565b5b92915050565b7f4e487b7100000000000000000000000000000000000000000000000000000000600052603260045260246000fd5b60006136be82612824565b9150600082036136d1576136d0613064565b5b600182039050919050565b7f537472696e67733a20686578206c656e67746820696e73756666696369656e74600082015250565b60006137126020836128b0565b915061371d826136dc565b602082019050919050565b6000602082019050818103600083015261374181613705565b905091905056fea2646970667358221220d9a77f80fe8580dd2454315dd95f56b3346faea2fe93fd98dc6dc771af36de3064736f6c63430008110033",
  "linkReferences": {},
  "deployedLinkReferences": {}
}